{
  "_format": "hh-sol-artifact-1",
  "contractName": "TestInterestBNBMarket",
  "sourceName": "contracts/TestInterestBNBMarket.sol",
  "abi": [
    {
      "anonymous": false,
      "inputs": [
        {
          "indexed": false,
          "internalType": "uint256",
          "name": "accruedAmount",
          "type": "uint256"
        }
      ],
      "name": "Accrue",
      "type": "event"
    },
    {
      "anonymous": false,
      "inputs": [
        {
          "indexed": true,
          "internalType": "address",
          "name": "from",
          "type": "address"
        },
        {
          "indexed": true,
          "internalType": "address",
          "name": "to",
          "type": "address"
        },
        {
          "indexed": false,
          "internalType": "uint256",
          "name": "amount",
          "type": "uint256"
        }
      ],
      "name": "AddCollateral",
      "type": "event"
    },
    {
      "anonymous": false,
      "inputs": [
        {
          "indexed": false,
          "internalType": "address",
          "name": "previousAdmin",
          "type": "address"
        },
        {
          "indexed": false,
          "internalType": "address",
          "name": "newAdmin",
          "type": "address"
        }
      ],
      "name": "AdminChanged",
      "type": "event"
    },
    {
      "anonymous": false,
      "inputs": [
        {
          "indexed": true,
          "internalType": "address",
          "name": "beacon",
          "type": "address"
        }
      ],
      "name": "BeaconUpgraded",
      "type": "event"
    },
    {
      "anonymous": false,
      "inputs": [
        {
          "indexed": true,
          "internalType": "address",
          "name": "from",
          "type": "address"
        },
        {
          "indexed": true,
          "internalType": "address",
          "name": "to",
          "type": "address"
        },
        {
          "indexed": false,
          "internalType": "uint256",
          "name": "principal",
          "type": "uint256"
        },
        {
          "indexed": false,
          "internalType": "uint256",
          "name": "amount",
          "type": "uint256"
        }
      ],
      "name": "Borrow",
      "type": "event"
    },
    {
      "anonymous": false,
      "inputs": [
        {
          "indexed": false,
          "internalType": "uint256",
          "name": "rate",
          "type": "uint256"
        }
      ],
      "name": "ExchangeRate",
      "type": "event"
    },
    {
      "anonymous": false,
      "inputs": [
        {
          "indexed": true,
          "internalType": "address",
          "name": "treasury",
          "type": "address"
        },
        {
          "indexed": false,
          "internalType": "uint256",
          "name": "amount",
          "type": "uint256"
        }
      ],
      "name": "GetEarnings",
      "type": "event"
    },
    {
      "anonymous": false,
      "inputs": [
        {
          "indexed": true,
          "internalType": "address",
          "name": "previousOwner",
          "type": "address"
        },
        {
          "indexed": true,
          "internalType": "address",
          "name": "newOwner",
          "type": "address"
        }
      ],
      "name": "OwnershipTransferred",
      "type": "event"
    },
    {
      "anonymous": false,
      "inputs": [
        {
          "indexed": true,
          "internalType": "address",
          "name": "payer",
          "type": "address"
        },
        {
          "indexed": true,
          "internalType": "address",
          "name": "borrower",
          "type": "address"
        },
        {
          "indexed": false,
          "internalType": "uint256",
          "name": "principal",
          "type": "uint256"
        },
        {
          "indexed": false,
          "internalType": "uint256",
          "name": "debt",
          "type": "uint256"
        }
      ],
      "name": "Repay",
      "type": "event"
    },
    {
      "anonymous": false,
      "inputs": [
        {
          "indexed": true,
          "internalType": "address",
          "name": "implementation",
          "type": "address"
        }
      ],
      "name": "Upgraded",
      "type": "event"
    },
    {
      "anonymous": false,
      "inputs": [
        {
          "indexed": true,
          "internalType": "address",
          "name": "from",
          "type": "address"
        },
        {
          "indexed": true,
          "internalType": "address",
          "name": "to",
          "type": "address"
        },
        {
          "indexed": false,
          "internalType": "uint256",
          "name": "amount",
          "type": "uint256"
        }
      ],
      "name": "WithdrawCollateral",
      "type": "event"
    },
    {
      "inputs": [],
      "name": "DINERO",
      "outputs": [
        {
          "internalType": "contract Dinero",
          "name": "",
          "type": "address"
        }
      ],
      "stateMutability": "view",
      "type": "function"
    },
    {
      "inputs": [],
      "name": "FEE_TO",
      "outputs": [
        {
          "internalType": "address",
          "name": "",
          "type": "address"
        }
      ],
      "stateMutability": "view",
      "type": "function"
    },
    {
      "inputs": [],
      "name": "ORACLE",
      "outputs": [
        {
          "internalType": "contract OracleV1",
          "name": "",
          "type": "address"
        }
      ],
      "stateMutability": "view",
      "type": "function"
    },
    {
      "inputs": [],
      "name": "ROUTER",
      "outputs": [
        {
          "internalType": "contract IPancakeRouter02",
          "name": "",
          "type": "address"
        }
      ],
      "stateMutability": "view",
      "type": "function"
    },
    {
      "inputs": [],
      "name": "accrue",
      "outputs": [],
      "stateMutability": "nonpayable",
      "type": "function"
    },
    {
      "inputs": [
        {
          "internalType": "address",
          "name": "to",
          "type": "address"
        }
      ],
      "name": "addCollateral",
      "outputs": [],
      "stateMutability": "payable",
      "type": "function"
    },
    {
      "inputs": [
        {
          "internalType": "address",
          "name": "to",
          "type": "address"
        },
        {
          "internalType": "uint256",
          "name": "amount",
          "type": "uint256"
        }
      ],
      "name": "borrow",
      "outputs": [],
      "stateMutability": "nonpayable",
      "type": "function"
    },
    {
      "inputs": [],
      "name": "exchangeRate",
      "outputs": [
        {
          "internalType": "uint256",
          "name": "",
          "type": "uint256"
        }
      ],
      "stateMutability": "view",
      "type": "function"
    },
    {
      "inputs": [],
      "name": "getEarnings",
      "outputs": [],
      "stateMutability": "nonpayable",
      "type": "function"
    },
    {
      "inputs": [
        {
          "internalType": "contract IPancakeRouter02",
          "name": "router",
          "type": "address"
        },
        {
          "internalType": "contract Dinero",
          "name": "dinero",
          "type": "address"
        },
        {
          "internalType": "address",
          "name": "feeTo",
          "type": "address"
        },
        {
          "internalType": "contract OracleV1",
          "name": "oracle",
          "type": "address"
        },
        {
          "internalType": "uint64",
          "name": "interestRate",
          "type": "uint64"
        },
        {
          "internalType": "uint256",
          "name": "_maxLTVRatio",
          "type": "uint256"
        },
        {
          "internalType": "uint256",
          "name": "_liquidationFee",
          "type": "uint256"
        }
      ],
      "name": "initialize",
      "outputs": [],
      "stateMutability": "nonpayable",
      "type": "function"
    },
    {
      "inputs": [
        {
          "internalType": "address[]",
          "name": "accounts",
          "type": "address[]"
        },
        {
          "internalType": "uint256[]",
          "name": "principals",
          "type": "uint256[]"
        },
        {
          "internalType": "address payable",
          "name": "recipient",
          "type": "address"
        },
        {
          "internalType": "address[]",
          "name": "path",
          "type": "address[]"
        }
      ],
      "name": "liquidate",
      "outputs": [],
      "stateMutability": "nonpayable",
      "type": "function"
    },
    {
      "inputs": [],
      "name": "liquidationFee",
      "outputs": [
        {
          "internalType": "uint256",
          "name": "",
          "type": "uint256"
        }
      ],
      "stateMutability": "view",
      "type": "function"
    },
    {
      "inputs": [],
      "name": "loan",
      "outputs": [
        {
          "internalType": "uint64",
          "name": "lastAccrued",
          "type": "uint64"
        },
        {
          "internalType": "uint64",
          "name": "INTEREST_RATE",
          "type": "uint64"
        },
        {
          "internalType": "uint128",
          "name": "feesEarned",
          "type": "uint128"
        }
      ],
      "stateMutability": "view",
      "type": "function"
    },
    {
      "inputs": [],
      "name": "maxLTVRatio",
      "outputs": [
        {
          "internalType": "uint256",
          "name": "",
          "type": "uint256"
        }
      ],
      "stateMutability": "view",
      "type": "function"
    },
    {
      "inputs": [],
      "name": "owner",
      "outputs": [
        {
          "internalType": "address",
          "name": "",
          "type": "address"
        }
      ],
      "stateMutability": "view",
      "type": "function"
    },
    {
      "inputs": [],
      "name": "proxiableUUID",
      "outputs": [
        {
          "internalType": "bytes32",
          "name": "",
          "type": "bytes32"
        }
      ],
      "stateMutability": "view",
      "type": "function"
    },
    {
      "inputs": [],
      "name": "renounceOwnership",
      "outputs": [],
      "stateMutability": "nonpayable",
      "type": "function"
    },
    {
      "inputs": [
        {
          "internalType": "address",
          "name": "account",
          "type": "address"
        },
        {
          "internalType": "uint256",
          "name": "principal",
          "type": "uint256"
        }
      ],
      "name": "repay",
      "outputs": [],
      "stateMutability": "nonpayable",
      "type": "function"
    },
    {
      "inputs": [
        {
          "internalType": "uint64",
          "name": "amount",
          "type": "uint64"
        }
      ],
      "name": "setInterestRate",
      "outputs": [],
      "stateMutability": "nonpayable",
      "type": "function"
    },
    {
      "inputs": [
        {
          "internalType": "uint256",
          "name": "amount",
          "type": "uint256"
        }
      ],
      "name": "setLiquidationFee",
      "outputs": [],
      "stateMutability": "nonpayable",
      "type": "function"
    },
    {
      "inputs": [
        {
          "internalType": "uint256",
          "name": "amount",
          "type": "uint256"
        }
      ],
      "name": "setMaxLTVRatio",
      "outputs": [],
      "stateMutability": "nonpayable",
      "type": "function"
    },
    {
      "inputs": [],
      "name": "totalLoan",
      "outputs": [
        {
          "internalType": "uint128",
          "name": "elastic",
          "type": "uint128"
        },
        {
          "internalType": "uint128",
          "name": "base",
          "type": "uint128"
        }
      ],
      "stateMutability": "view",
      "type": "function"
    },
    {
      "inputs": [
        {
          "internalType": "address",
          "name": "newOwner",
          "type": "address"
        }
      ],
      "name": "transferOwnership",
      "outputs": [],
      "stateMutability": "nonpayable",
      "type": "function"
    },
    {
      "inputs": [],
      "name": "updateExchangeRate",
      "outputs": [
        {
          "internalType": "uint256",
          "name": "rate",
          "type": "uint256"
        }
      ],
      "stateMutability": "nonpayable",
      "type": "function"
    },
    {
      "inputs": [
        {
          "internalType": "address",
          "name": "newImplementation",
          "type": "address"
        }
      ],
      "name": "upgradeTo",
      "outputs": [],
      "stateMutability": "nonpayable",
      "type": "function"
    },
    {
      "inputs": [
        {
          "internalType": "address",
          "name": "newImplementation",
          "type": "address"
        },
        {
          "internalType": "bytes",
          "name": "data",
          "type": "bytes"
        }
      ],
      "name": "upgradeToAndCall",
      "outputs": [],
      "stateMutability": "payable",
      "type": "function"
    },
    {
      "inputs": [
        {
          "internalType": "address",
          "name": "",
          "type": "address"
        }
      ],
      "name": "userCollateral",
      "outputs": [
        {
          "internalType": "uint256",
          "name": "",
          "type": "uint256"
        }
      ],
      "stateMutability": "view",
      "type": "function"
    },
    {
      "inputs": [
        {
          "internalType": "address",
          "name": "",
          "type": "address"
        }
      ],
      "name": "userLoan",
      "outputs": [
        {
          "internalType": "uint256",
          "name": "",
          "type": "uint256"
        }
      ],
      "stateMutability": "view",
      "type": "function"
    },
    {
      "inputs": [
        {
          "internalType": "address",
          "name": "to",
          "type": "address"
        },
        {
          "internalType": "uint256",
          "name": "amount",
          "type": "uint256"
        }
      ],
      "name": "withdrawCollateral",
      "outputs": [],
      "stateMutability": "nonpayable",
      "type": "function"
    },
    {
      "stateMutability": "payable",
      "type": "receive"
    }
  ],
  "bytecode": "0x60a06040523060805234801561001457600080fd5b50608051612eaf61004c60003960008181610bd901528181610c1901528181610ec101528181610f010152610f900152612eaf6000f3fe6080604052600436106101c65760003560e01c80637790df39116100f7578063d285b7b411610095578063f2fde38b11610064578063f2fde38b1461054a578063f69f1e4a1461056a578063f8ba4cff14610598578063fef0bec8146105ad57600080fd5b8063d285b7b414610497578063d79bad1414610505578063e84176111461051c578063f0d2d5a81461053c57600080fd5b806390666232116100d1578063906662321461042b578063a36a363014610440578063b192ee9314610457578063be8c4faf1461047757600080fd5b80637790df39146103bf578063885acd9e146103df5780638da5cb5b1461040d57600080fd5b80633ba0b9a9116101645780634f1ef2861161013e5780634f1ef2861461036257806352d1902d1461037557806365f941e81461038a578063715018a6146103aa57600080fd5b80633ba0b9a9146102e0578063453b1a8b146102f75780634b8a35291461034257600080fd5b806332fe7b26116101a057806332fe7b2614610248578063350c35e9146102805780633659cfe6146102a057806338013f02146102c057600080fd5b806302ce728f146101e05780631ae4b1e91461020857806322867d781461022857600080fd5b366101db576101d9336105cd565b6105cd565b005b600080fd5b3480156101ec57600080fd5b506101f561063e565b6040519081526020015b60405180910390f35b34801561021457600080fd5b506101d9610223366004612783565b610751565b34801561023457600080fd5b506101d9610243366004612803565b61089d565b34801561025457600080fd5b5060fb54610268906001600160a01b031681565b6040516001600160a01b0390911681526020016101ff565b34801561028c57600080fd5b506101d961029b366004612803565b610a9d565b3480156102ac57600080fd5b506101d96102bb36600461282f565b610bce565b3480156102cc57600080fd5b5060fe54610268906001600160a01b031681565b3480156102ec57600080fd5b506101f56101025481565b34801561030357600080fd5b5060ff54610322906001600160801b0380821691600160801b90041682565b604080516001600160801b039384168152929091166020830152016101ff565b34801561034e57600080fd5b506101d961035d366004612803565b610cae565b6101d9610370366004612892565b610eb6565b34801561038157600080fd5b506101f5610f83565b34801561039657600080fd5b506101d96103a5366004612939565b611036565b3480156103b657600080fd5b506101d96110bb565b3480156103cb57600080fd5b5060fc54610268906001600160a01b031681565b3480156103eb57600080fd5b506101f56103fa36600461282f565b6101016020526000908152604090205481565b34801561041957600080fd5b506065546001600160a01b0316610268565b34801561043757600080fd5b506101d96110f1565b34801561044c57600080fd5b506101f56101055481565b34801561046357600080fd5b506101d9610472366004612954565b6111c9565b34801561048357600080fd5b506101d96104923660046129b8565b611221565b3480156104a357600080fd5b50610103546104d6906001600160401b0380821691600160401b810490911690600160801b90046001600160801b031683565b604080516001600160401b0394851681529390921660208401526001600160801b0316908201526060016101ff565b34801561051157600080fd5b506101f56101045481565b34801561052857600080fd5b5060fd54610268906001600160a01b031681565b6101d96101d436600461282f565b34801561055657600080fd5b506101d961056536600461282f565b6118f6565b34801561057657600080fd5b506101f561058536600461282f565b6101006020526000908152604090205481565b3480156105a457600080fd5b506101d961198e565b3480156105b957600080fd5b506101d96105c8366004612954565b611b66565b6001600160a01b03811660009081526101006020526040812080543492906105f6908490612a7c565b90915550506040513481526001600160a01b0382169033907fa32435755c235de2976ed44a75a2f85cb01faf0c894f639fe0c32bb9455fea8f9060200160405180910390a350565b60fe5460405163c5fa4f2f60e01b8152670de0b6b3a764000060048201526000916001600160a01b03169063c5fa4f2f90602401602060405180830381865afa15801561068f573d6000803e3d6000fd5b505050506040513d601f19601f820116820180604052508101906106b39190612a94565b90506000811161070a5760405162461bcd60e51b815260206004820152601a60248201527f4d4b543a20696e76616c69642065786368616e6765207261746500000000000060448201526064015b60405180910390fd5b61010254811461074e576101028190556040518181527f8d256b0ab7967dfd2926819017e391ea454bb6272f8a89889595e8b6b4a15aa49060200160405180910390a15b90565b600054610100900460ff1661076c5760005460ff1615610770565b303b155b6107d35760405162461bcd60e51b815260206004820152602e60248201527f496e697469616c697a61626c653a20636f6e747261637420697320616c72656160448201526d191e481a5b9a5d1a585b1a5e995960921b6064820152608401610701565b600054610100900460ff161580156107f5576000805461ffff19166101011790555b6107fd611bbe565b610805611bed565b60fb80546001600160a01b03199081166001600160a01b038b81169190911790925560fc805482168a841617905560fd8054821689841617905560fe8054909116918716919091179055610103805467ffffffffffffffff60401b1916600160401b6001600160401b038716021790556101048390556101058290558015610893576000805461ff00191690555b5050505050505050565b6001600160a01b0382166108ea5760405162461bcd60e51b81526020600482015260146024820152734d4b543a206e6f207a65726f206164647265737360601b6044820152606401610701565b6000811161093a5760405162461bcd60e51b815260206004820152601a60248201527f4d4b543a207072696e636970616c2063616e6e6f7420626520300000000000006044820152606401610701565b61094261198e565b6040805180820190915260ff546001600160801b038082168352600160801b90910416602082015260009061097990836001611c1c565b81516020928301516001600160801b03908116600160801b0291161760ff556001600160a01b0385166000908152610101909252604082208054919350849290916109c5908490612aad565b909155505060fc546001600160a01b0316639dc29fac336040516001600160e01b031960e084901b1681526001600160a01b03909116600482015260248101849052604401600060405180830381600087803b158015610a2457600080fd5b505af1158015610a38573d6000803e3d6000fd5b50505050826001600160a01b0316610a4d3390565b6001600160a01b03167fe4a1ae657f49cb1fb1c7d3a94ae6093565c4c8c0e03de488f79c377c3c3a24e08484604051610a90929190918252602082015260400190565b60405180910390a3505050565b60026001541415610af05760405162461bcd60e51b815260206004820152601f60248201527f5265656e7472616e637947756172643a207265656e7472616e742063616c6c006044820152606401610701565b6002600155610afd61198e565b336000908152610100602052604081208054839290610b1d908490612aad565b90915550610b2d90508282611c91565b6040518181526001600160a01b0383169033907f1607da8e9144035d8537941425741e9e3569c81d34a7f8e0c5c44635dc7169219060200160405180910390a3610b7f335b610b7a61063e565b611da5565b610bc65760405162461bcd60e51b81526020600482015260186024820152771352d50e881cd95b99195c881a5cc81a5b9cdbdb1d995b9d60421b6044820152606401610701565b505060018055565b306001600160a01b037f0000000000000000000000000000000000000000000000000000000000000000161415610c175760405162461bcd60e51b815260040161070190612ac4565b7f00000000000000000000000000000000000000000000000000000000000000006001600160a01b0316610c60600080516020612e33833981519152546001600160a01b031690565b6001600160a01b031614610c865760405162461bcd60e51b815260040161070190612b10565b610c8f81611e57565b60408051600080825260208201909252610cab91839190611e81565b50565b6001600160a01b038216610cfb5760405162461bcd60e51b81526020600482015260146024820152734d4b543a206e6f207a65726f206164647265737360601b6044820152606401610701565b610d0361198e565b6040805180820190915260ff546001600160801b038082168352600160801b909104166020820152600090610d3a90836001611ff1565b81516020909201516001600160801b03908116600160801b0292169190911760ff559050806101016000610d6b3390565b6001600160a01b03166001600160a01b031681526020019081526020016000206000828254610d9a9190612a7c565b909155505060fc546040516340c10f1960e01b81526001600160a01b03858116600483015260248201859052909116906340c10f1990604401600060405180830381600087803b158015610ded57600080fd5b505af1158015610e01573d6000803e3d6000fd5b50505050826001600160a01b0316610e163390565b6001600160a01b03167fc1561b330e73faa7d5d1ac03c968d8f359b0191ccdb9cc002cf7d8eb6ae038cb8385604051610e59929190918252602082015260400190565b60405180910390a350610e6b33610b72565b610eb25760405162461bcd60e51b81526020600482015260186024820152771352d50e881cd95b99195c881a5cc81a5b9cdbdb1d995b9d60421b6044820152606401610701565b5050565b306001600160a01b037f0000000000000000000000000000000000000000000000000000000000000000161415610eff5760405162461bcd60e51b815260040161070190612ac4565b7f00000000000000000000000000000000000000000000000000000000000000006001600160a01b0316610f48600080516020612e33833981519152546001600160a01b031690565b6001600160a01b031614610f6e5760405162461bcd60e51b815260040161070190612b10565b610f7782611e57565b610eb282826001611e81565b6000306001600160a01b037f000000000000000000000000000000000000000000000000000000000000000016146110235760405162461bcd60e51b815260206004820152603860248201527f555550535570677261646561626c653a206d757374206e6f742062652063616c60448201527f6c6564207468726f7567682064656c656761746563616c6c00000000000000006064820152608401610701565b50600080516020612e3383398151915290565b6065546001600160a01b031633146110605760405162461bcd60e51b815260040161070190612b5c565b806001600160401b0316634d7c6d00101561108d5760405162461bcd60e51b815260040161070190612b91565b61010380546001600160401b03909216600160401b0267ffffffffffffffff60401b19909216919091179055565b6065546001600160a01b031633146110e55760405162461bcd60e51b815260040161070190612b5c565b6110ef6000612052565b565b6110f961198e565b61010380546001600160801b0380821690925560fd5460fc546040516340c10f1960e01b81526001600160a01b0392831660048201819052600160801b90940490941660248501819052939116906340c10f1990604401600060405180830381600087803b15801561116a57600080fd5b505af115801561117e573d6000803e3d6000fd5b50505050806001600160a01b03167f2903884191228aff518c0ff74cdf2f34afe7e8ece2645325e00ac933e438f5d9836040516111bd91815260200190565b60405180910390a25050565b6065546001600160a01b031633146111f35760405162461bcd60e51b815260040161070190612b5c565b80670c7d713b49da0000101561121b5760405162461bcd60e51b815260040161070190612b91565b61010455565b600260015414156112745760405162461bcd60e51b815260206004820152601f60248201527f5265656e7472616e637947756172643a207265656e7472616e742063616c6c006044820152606401610701565b60026001558015806112c9575060fc546001600160a01b0316828261129a600182612aad565b8181106112a9576112a9612bb8565b90506020020160208101906112be919061282f565b6001600160a01b0316145b6113155760405162461bcd60e51b815260206004820152601c60248201527f4d4b543a206e6f2064696e65726f206174206c61737420696e646578000000006044820152606401610701565b600061131f61063e565b905061132961198e565b6040805160808101825260008082526020820181905291810182905260608101919091526040805180820190915260ff546001600160801b038082168352600160801b9091041660208201526101055460005b8a8110156115ed5760008c8c8381811061139857611398612bb8565b90506020020160208101906113ad919061282f565b90506113b98187611da5565b156113c457506115db565b6001600160a01b03811660009081526101016020526040812054808d8d868181106113f1576113f1612bb8565b905060200201351161141b578c8c8581811061140f5761140f612bb8565b9050602002013561141d565b805b6001600160a01b0384166000908152610101602052604081208054929450849290919061144b908490612aad565b909155506000915061146090508683836120a4565b9050600061146e8287612129565b905060006114868a6114808486612a7c565b9061213e565b6001600160a01b038616600090815261010060205260408120805492935083929091906114b4908490612aad565b909155505060405181815230906001600160a01b038716907f1607da8e9144035d8537941425741e9e3569c81d34a7f8e0c5c44635dc7169219060200160405180910390a360408051858152602081018590526001600160a01b0387169133917fe4a1ae657f49cb1fb1c7d3a94ae6093565c4c8c0e03de488f79c377c3c3a24e0910160405180910390a361154881612153565b89518a90611557908390612bce565b6001600160801b031690525061156c84612153565b8960400181815161157d9190612bce565b6001600160801b031690525061159283612153565b896020018181516115a39190612bce565b6001600160801b03169052506115b882612153565b896060018181516115c99190612bce565b6001600160801b031690525050505050505b806115e581612bf9565b91505061137c565b50600083604001516001600160801b0316116116425760405162461bcd60e51b81526020600482015260146024820152734d4b543a206e6f206c69717569646174696f6e7360601b6044820152606401610701565b81602001516001600160801b031683604001516001600160801b031614156116755781516001600160801b031660208401525b6116a483604001516001600160801b031684602001516001600160801b0316846121c09092919063ffffffff16565b80516020909101516001600160801b03908116600160801b029181169190911760ff5560608401516000916116e2911667016345785d8a0000612129565b90506116ed81612153565b61010380546001600160801b03600160801b808304821690940181169093029216919091179055600286106118445760008185602001516001600160801b03166117379190612a7c565b905060fb60009054906101000a90046001600160a01b03166001600160a01b0316637ff36ab586600001516001600160801b0316838b8b8e426040518763ffffffff1660e01b8152600401611790959493929190612c14565b60006040518083038185885af11580156117ae573d6000803e3d6000fd5b50505050506040513d6000823e601f3d908101601f191682016040526117d79190810190612c80565b5060fc54604051632770a7eb60e21b81526001600160a01b038b811660048301526024820184905290911690639dc29fac90604401600060405180830381600087803b15801561182657600080fd5b505af115801561183a573d6000803e3d6000fd5b50505050506118e4565b60fc546001600160a01b0316639dc29fac338387602001516001600160801b031661186f9190612a7c565b6040516001600160e01b031960e085901b1681526001600160a01b0390921660048301526024820152604401600060405180830381600087803b1580156118b557600080fd5b505af11580156118c9573d6000803e3d6000fd5b505050506118e48885600001516001600160801b0316611c91565b50506001805550505050505050505050565b6065546001600160a01b031633146119205760405162461bcd60e51b815260040161070190612b5c565b6001600160a01b0381166119855760405162461bcd60e51b815260206004820152602660248201527f4f776e61626c653a206e6577206f776e657220697320746865207a65726f206160448201526564647265737360d01b6064820152608401610701565b610cab81612052565b60408051606081018252610103546001600160401b03808216808452600160401b83049091166020840152600160801b9091046001600160801b03169282019290925290428181039114156119e1575050565b6119ea42612226565b6001600160401b031682526040805180820190915260ff546001600160801b038082168352600160801b9091041660208201819052611a775750508051610103805460208401516040909401516001600160801b03908116600160801b026001600160401b03958616600160401b026001600160801b031990931695909416949094171792909216179055565b6000611aa98385602001516001600160401b031684600001516001600160801b0316611aa39190612d25565b90612129565b9050611ab481612153565b604085018051919091016001600160801b03169052611ad460ff8261228e565b508351610103805460208701516040808901516001600160801b03908116600160801b026001600160401b03938416600160401b026001600160801b031990951693909616929092179290921716929092179055517f184f65042d0acee3fe9a2216428397968211b66a6f53244a44eb13ae62bc723590611b589083815260200190565b60405180910390a150505050565b6065546001600160a01b03163314611b905760405162461bcd60e51b815260040161070190612b5c565b80670214e8348c4f00001015611bb85760405162461bcd60e51b815260040161070190612b91565b61010555565b600054610100900460ff16611be55760405162461bcd60e51b815260040161070190612d44565b6110ef6122e8565b600054610100900460ff16611c145760405162461bcd60e51b815260040161070190612d44565b6110ef612318565b60408051808201909152600080825260208201526000611c3d8585856120a4565b9050611c4881612153565b85518690611c57908390612d8f565b6001600160801b0316905250611c6c84612153565b85602001818151611c7d9190612d8f565b6001600160801b0316905250939492505050565b80471015611ce15760405162461bcd60e51b815260206004820152601960248201527f4d4b543a20696e73756666696369656e742062616c616e6365000000000000006044820152606401610701565b600080836001600160a01b03168360405160006040518083038185875af1925050503d8060008114611d2f576040519150601f19603f3d011682016040523d82523d6000602084013e611d34565b606091505b5091509150818151600014611d495781611d80565b6040518060400160405280602081526020017f4d4b543a20756e61626c6520746f2072656d6f766520636f6c6c61746572616c8152505b90611d9e5760405162461bcd60e51b81526004016107019190612de3565b5050505050565b6001600160a01b0382166000908152610101602052604081205480611dce576001915050611e51565b6001600160a01b0384166000908152610100602052604090205480611df857600092505050611e51565b6040805180820190915260ff546001600160801b038082168352600160801b9091041660208201526000611e2c8387612129565b9050611e3a828560016120a4565b61010454611e49908390612129565b119450505050505b92915050565b6065546001600160a01b03163314610cab5760405162461bcd60e51b815260040161070190612b5c565b7f4910fdfa16fed3260ed0e7147f7cc6da11a60208b5b9406d12a635614ffd91435460ff1615611eb957611eb483612345565b505050565b826001600160a01b03166352d1902d6040518163ffffffff1660e01b8152600401602060405180830381865afa925050508015611f13575060408051601f3d908101601f19168201909252611f1091810190612a94565b60015b611f765760405162461bcd60e51b815260206004820152602e60248201527f45524331393637557067726164653a206e657720696d706c656d656e7461746960448201526d6f6e206973206e6f74205555505360901b6064820152608401610701565b600080516020612e338339815191528114611fe55760405162461bcd60e51b815260206004820152602960248201527f45524331393637557067726164653a20756e737570706f727465642070726f786044820152681a58589b195555525160ba1b6064820152608401610701565b50611eb48383836123e1565b6040805180820190915260008082526020820152600061201285858561240c565b905061201d84612153565b8551869061202c908390612bce565b6001600160801b031690525061204181612153565b85602001818151611c7d9190612bce565b606580546001600160a01b038381166001600160a01b0319831681179093556040519116919082907f8be0079c531659141344cd1fd0a4f28419497f9722a3daafe3b4186f6b6457e090600090a35050565b600083602001516001600160801b0316600014156120c3575081612122565b835160208501516120e29185916001600160801b03918216911661246b565b905081801561210f575060208401518451849161210d9184916001600160801b03908116911661246b565b105b156121225761211f600182612a7c565b90505b9392505050565b60006121228383670de0b6b3a764000061246b565b600061212283670de0b6b3a76400008461246b565b60006001600160801b038211156121bc5760405162461bcd60e51b815260206004820152602760248201527f53616665436173743a2076616c756520646f65736e27742066697420696e20316044820152663238206269747360c81b6064820152608401610701565b5090565b60408051808201909152600080825260208201526121dd83612153565b846020018181516121ee9190612d8f565b6001600160801b031690525061220382612153565b84518590612212908390612d8f565b6001600160801b0316905250929392505050565b60006001600160401b038211156121bc5760405162461bcd60e51b815260206004820152602660248201527f53616665436173743a2076616c756520646f65736e27742066697420696e203660448201526534206269747360d01b6064820152608401610701565b600061229982612153565b835484906000906122b49084906001600160801b0316612bce565b92506101000a8154816001600160801b0302191690836001600160801b0316021790556001600160801b0316905092915050565b600054610100900460ff1661230f5760405162461bcd60e51b815260040161070190612d44565b6110ef33612052565b600054610100900460ff1661233f5760405162461bcd60e51b815260040161070190612d44565b60018055565b6001600160a01b0381163b6123b25760405162461bcd60e51b815260206004820152602d60248201527f455243313936373a206e657720696d706c656d656e746174696f6e206973206e60448201526c1bdd08184818dbdb9d1c9858dd609a1b6064820152608401610701565b600080516020612e3383398151915280546001600160a01b0319166001600160a01b0392909216919091179055565b6123ea836125e5565b6000825111806123f75750805b15611eb4576124068383612625565b50505050565b82516000906001600160801b0316612425575081612122565b602084015184516124449185916001600160801b03918216911661246b565b905081801561210f575083516020850151849161210d9184916001600160801b0390811691165b6000808060001985870985870292508281108382030391505080600014156124a5576000841161249a57600080fd5b508290049050612122565b8084116124b157600080fd5b60008486880980840393811190920391905060006124d186196001612a7c565b86169586900495938490049360008190030460010190506124f28184612d25565b909317926000612503876003612d25565b60021890506125128188612d25565b61251d906002612aad565b6125279082612d25565b90506125338188612d25565b61253e906002612aad565b6125489082612d25565b90506125548188612d25565b61255f906002612aad565b6125699082612d25565b90506125758188612d25565b612580906002612aad565b61258a9082612d25565b90506125968188612d25565b6125a1906002612aad565b6125ab9082612d25565b90506125b78188612d25565b6125c2906002612aad565b6125cc9082612d25565b90506125d88186612d25565b9998505050505050505050565b6125ee81612345565b6040516001600160a01b038216907fbc7cd75a20ee27fd9adebab32041f755214dbc6bffa90cc0225b39da2e5c2d3b90600090a250565b60606001600160a01b0383163b61268d5760405162461bcd60e51b815260206004820152602660248201527f416464726573733a2064656c65676174652063616c6c20746f206e6f6e2d636f6044820152651b9d1c9858dd60d21b6064820152608401610701565b600080846001600160a01b0316846040516126a89190612e16565b600060405180830381855af49150503d80600081146126e3576040519150601f19603f3d011682016040523d82523d6000602084013e6126e8565b606091505b50915091506127108282604051806060016040528060278152602001612e5360279139612719565b95945050505050565b60608315612728575081612122565b8251156127385782518084602001fd5b8160405162461bcd60e51b81526004016107019190612de3565b6001600160a01b0381168114610cab57600080fd5b80356001600160401b038116811461277e57600080fd5b919050565b600080600080600080600060e0888a03121561279e57600080fd5b87356127a981612752565b965060208801356127b981612752565b955060408801356127c981612752565b945060608801356127d981612752565b93506127e760808901612767565b925060a0880135915060c0880135905092959891949750929550565b6000806040838503121561281657600080fd5b823561282181612752565b946020939093013593505050565b60006020828403121561284157600080fd5b813561212281612752565b634e487b7160e01b600052604160045260246000fd5b604051601f8201601f191681016001600160401b038111828210171561288a5761288a61284c565b604052919050565b600080604083850312156128a557600080fd5b82356128b081612752565b91506020838101356001600160401b03808211156128cd57600080fd5b818601915086601f8301126128e157600080fd5b8135818111156128f3576128f361284c565b612905601f8201601f19168501612862565b9150808252878482850101111561291b57600080fd5b80848401858401376000848284010152508093505050509250929050565b60006020828403121561294b57600080fd5b61212282612767565b60006020828403121561296657600080fd5b5035919050565b60008083601f84011261297f57600080fd5b5081356001600160401b0381111561299657600080fd5b6020830191508360208260051b85010111156129b157600080fd5b9250929050565b60008060008060008060006080888a0312156129d357600080fd5b87356001600160401b03808211156129ea57600080fd5b6129f68b838c0161296d565b909950975060208a0135915080821115612a0f57600080fd5b612a1b8b838c0161296d565b909750955060408a01359150612a3082612752565b90935060608901359080821115612a4657600080fd5b50612a538a828b0161296d565b989b979a50959850939692959293505050565b634e487b7160e01b600052601160045260246000fd5b60008219821115612a8f57612a8f612a66565b500190565b600060208284031215612aa657600080fd5b5051919050565b600082821015612abf57612abf612a66565b500390565b6020808252602c908201527f46756e6374696f6e206d7573742062652063616c6c6564207468726f7567682060408201526b19195b1959d85d1958d85b1b60a21b606082015260800190565b6020808252602c908201527f46756e6374696f6e206d7573742062652063616c6c6564207468726f7567682060408201526b6163746976652070726f787960a01b606082015260800190565b6020808252818101527f4f776e61626c653a2063616c6c6572206973206e6f7420746865206f776e6572604082015260600190565b6020808252600d908201526c09a96a87440e8dede40d0d2ced609b1b604082015260600190565b634e487b7160e01b600052603260045260246000fd5b60006001600160801b03808316818516808303821115612bf057612bf0612a66565b01949350505050565b6000600019821415612c0d57612c0d612a66565b5060010190565b85815260806020808301829052908201859052600090869060a08401835b88811015612c60578335612c4581612752565b6001600160a01b031682529282019290820190600101612c32565b506001600160a01b03969096166040850152505050606001529392505050565b60006020808385031215612c9357600080fd5b82516001600160401b0380821115612caa57600080fd5b818501915085601f830112612cbe57600080fd5b815181811115612cd057612cd061284c565b8060051b9150612ce1848301612862565b8181529183018401918481019088841115612cfb57600080fd5b938501935b83851015612d1957845182529385019390850190612d00565b98975050505050505050565b6000816000190483118215151615612d3f57612d3f612a66565b500290565b6020808252602b908201527f496e697469616c697a61626c653a20636f6e7472616374206973206e6f74206960408201526a6e697469616c697a696e6760a81b606082015260800190565b60006001600160801b0383811690831681811015612daf57612daf612a66565b039392505050565b60005b83811015612dd2578181015183820152602001612dba565b838111156124065750506000910152565b6020815260008251806020840152612e02816040850160208701612db7565b601f01601f19169190910160400192915050565b60008251612e28818460208701612db7565b919091019291505056fe360894a13ba1a3210667c828492db98dca3e2076cc3735a920a3ca505d382bbc416464726573733a206c6f772d6c6576656c2064656c65676174652063616c6c206661696c6564a2646970667358221220a3fbda87252a8027401c5f047cb971d7c8bbe4842db0edd33f1ca5058265dd7864736f6c634300080a0033",
  "linkReferences": {},
  "deployedLinkReferences": {}
}