{
  "_format": "hh-sol-artifact-1",
  "contractName": "TestNFTMarket",
  "sourceName": "contracts/TestNFTMarket.sol",
  "abi": [
    {
      "anonymous": false,
      "inputs": [
        {
          "indexed": false,
          "internalType": "address",
          "name": "previousAdmin",
          "type": "address"
        },
        {
          "indexed": false,
          "internalType": "address",
          "name": "newAdmin",
          "type": "address"
        }
      ],
      "name": "AdminChanged",
      "type": "event"
    },
    {
      "anonymous": false,
      "inputs": [
        {
          "indexed": true,
          "internalType": "address",
          "name": "beacon",
          "type": "address"
        }
      ],
      "name": "BeaconUpgraded",
      "type": "event"
    },
    {
      "anonymous": false,
      "inputs": [
        {
          "indexed": true,
          "internalType": "contract IERC721Upgradeable",
          "name": "collection",
          "type": "address"
        },
        {
          "indexed": true,
          "internalType": "uint256",
          "name": "tokenId",
          "type": "uint256"
        },
        {
          "indexed": false,
          "internalType": "address",
          "name": "lender",
          "type": "address"
        },
        {
          "indexed": true,
          "internalType": "address",
          "name": "borrower",
          "type": "address"
        },
        {
          "indexed": false,
          "internalType": "contract IERC20Upgradeable",
          "name": "token",
          "type": "address"
        },
        {
          "indexed": false,
          "internalType": "uint256",
          "name": "amount",
          "type": "uint256"
        }
      ],
      "name": "BorrowerStartLoan",
      "type": "event"
    },
    {
      "anonymous": false,
      "inputs": [
        {
          "indexed": true,
          "internalType": "contract IERC721Upgradeable",
          "name": "collection",
          "type": "address"
        },
        {
          "indexed": true,
          "internalType": "address",
          "name": "lender",
          "type": "address"
        },
        {
          "indexed": true,
          "internalType": "uint256",
          "name": "tokenId",
          "type": "uint256"
        },
        {
          "indexed": false,
          "internalType": "contract IERC20Upgradeable",
          "name": "loanToken",
          "type": "address"
        },
        {
          "indexed": false,
          "internalType": "uint128",
          "name": "principal",
          "type": "uint128"
        },
        {
          "indexed": false,
          "internalType": "uint64",
          "name": "interestRate",
          "type": "uint64"
        },
        {
          "indexed": false,
          "internalType": "uint64",
          "name": "maturity",
          "type": "uint64"
        }
      ],
      "name": "CounterOffer",
      "type": "event"
    },
    {
      "anonymous": false,
      "inputs": [
        {
          "indexed": true,
          "internalType": "contract IERC721Upgradeable",
          "name": "collection",
          "type": "address"
        },
        {
          "indexed": true,
          "internalType": "uint256",
          "name": "tokenId",
          "type": "uint256"
        },
        {
          "indexed": true,
          "internalType": "address",
          "name": "lender",
          "type": "address"
        },
        {
          "indexed": false,
          "internalType": "address",
          "name": "borrower",
          "type": "address"
        },
        {
          "indexed": false,
          "internalType": "contract IERC20Upgradeable",
          "name": "token",
          "type": "address"
        },
        {
          "indexed": false,
          "internalType": "uint256",
          "name": "amount",
          "type": "uint256"
        }
      ],
      "name": "LenderStartLoan",
      "type": "event"
    },
    {
      "anonymous": false,
      "inputs": [
        {
          "indexed": true,
          "internalType": "contract IERC721Upgradeable",
          "name": "collection",
          "type": "address"
        },
        {
          "indexed": true,
          "internalType": "uint256",
          "name": "tokenId",
          "type": "uint256"
        },
        {
          "indexed": true,
          "internalType": "address",
          "name": "lender",
          "type": "address"
        },
        {
          "indexed": false,
          "internalType": "address",
          "name": "borrower",
          "type": "address"
        }
      ],
      "name": "Liquidate",
      "type": "event"
    },
    {
      "anonymous": false,
      "inputs": [
        {
          "indexed": true,
          "internalType": "address",
          "name": "previousOwner",
          "type": "address"
        },
        {
          "indexed": true,
          "internalType": "address",
          "name": "newOwner",
          "type": "address"
        }
      ],
      "name": "OwnershipTransferred",
      "type": "event"
    },
    {
      "anonymous": false,
      "inputs": [
        {
          "indexed": true,
          "internalType": "contract IERC721Upgradeable",
          "name": "collection",
          "type": "address"
        },
        {
          "indexed": true,
          "internalType": "address",
          "name": "borrower",
          "type": "address"
        },
        {
          "indexed": true,
          "internalType": "uint256",
          "name": "tokenId",
          "type": "uint256"
        },
        {
          "indexed": false,
          "internalType": "contract IERC20Upgradeable",
          "name": "loanToken",
          "type": "address"
        },
        {
          "indexed": false,
          "internalType": "uint128",
          "name": "principal",
          "type": "uint128"
        },
        {
          "indexed": false,
          "internalType": "uint64",
          "name": "interestRate",
          "type": "uint64"
        },
        {
          "indexed": false,
          "internalType": "uint64",
          "name": "maturity",
          "type": "uint64"
        }
      ],
      "name": "ProposeLoan",
      "type": "event"
    },
    {
      "anonymous": false,
      "inputs": [
        {
          "indexed": true,
          "internalType": "contract IERC721Upgradeable",
          "name": "collection",
          "type": "address"
        },
        {
          "indexed": true,
          "internalType": "uint256",
          "name": "tokenId",
          "type": "uint256"
        },
        {
          "indexed": false,
          "internalType": "address",
          "name": "lender",
          "type": "address"
        },
        {
          "indexed": true,
          "internalType": "address",
          "name": "borrower",
          "type": "address"
        },
        {
          "indexed": false,
          "internalType": "uint256",
          "name": "total",
          "type": "uint256"
        },
        {
          "indexed": false,
          "internalType": "uint256",
          "name": "fee",
          "type": "uint256"
        }
      ],
      "name": "Repay",
      "type": "event"
    },
    {
      "anonymous": false,
      "inputs": [
        {
          "indexed": true,
          "internalType": "address",
          "name": "implementation",
          "type": "address"
        }
      ],
      "name": "Upgraded",
      "type": "event"
    },
    {
      "anonymous": false,
      "inputs": [
        {
          "indexed": true,
          "internalType": "contract IERC721Upgradeable",
          "name": "collection",
          "type": "address"
        },
        {
          "indexed": true,
          "internalType": "uint256",
          "name": "tokenId",
          "type": "uint256"
        },
        {
          "indexed": true,
          "internalType": "address",
          "name": "proposer",
          "type": "address"
        },
        {
          "indexed": false,
          "internalType": "uint256",
          "name": "amount",
          "type": "uint256"
        }
      ],
      "name": "WithdrawBNB",
      "type": "event"
    },
    {
      "anonymous": false,
      "inputs": [
        {
          "indexed": true,
          "internalType": "contract IERC721Upgradeable",
          "name": "collection",
          "type": "address"
        },
        {
          "indexed": true,
          "internalType": "uint256",
          "name": "tokenId",
          "type": "uint256"
        },
        {
          "indexed": true,
          "internalType": "address",
          "name": "owner",
          "type": "address"
        }
      ],
      "name": "WithdrawNFT",
      "type": "event"
    },
    {
      "inputs": [],
      "name": "FEE_TO",
      "outputs": [
        {
          "internalType": "address",
          "name": "",
          "type": "address"
        }
      ],
      "stateMutability": "view",
      "type": "function"
    },
    {
      "inputs": [
        {
          "internalType": "contract IERC721Upgradeable",
          "name": "collection",
          "type": "address"
        },
        {
          "internalType": "uint256",
          "name": "tokenId",
          "type": "uint256"
        },
        {
          "internalType": "address",
          "name": "proposer",
          "type": "address"
        }
      ],
      "name": "borrowerStartLoan",
      "outputs": [],
      "stateMutability": "nonpayable",
      "type": "function"
    },
    {
      "inputs": [
        {
          "internalType": "contract IERC721Upgradeable",
          "name": "collection",
          "type": "address"
        },
        {
          "internalType": "contract IERC20Upgradeable",
          "name": "loanToken",
          "type": "address"
        },
        {
          "internalType": "uint256",
          "name": "tokenId",
          "type": "uint256"
        },
        {
          "internalType": "uint128",
          "name": "principal",
          "type": "uint128"
        },
        {
          "internalType": "uint64",
          "name": "interestRate",
          "type": "uint64"
        },
        {
          "internalType": "uint64",
          "name": "maturity",
          "type": "uint64"
        }
      ],
      "name": "counterOffer",
      "outputs": [],
      "stateMutability": "payable",
      "type": "function"
    },
    {
      "inputs": [
        {
          "internalType": "address",
          "name": "collection",
          "type": "address"
        },
        {
          "internalType": "uint256",
          "name": "tokenId",
          "type": "uint256"
        },
        {
          "internalType": "uint256",
          "name": "index",
          "type": "uint256"
        }
      ],
      "name": "getAddressOfProposer",
      "outputs": [
        {
          "internalType": "address",
          "name": "",
          "type": "address"
        }
      ],
      "stateMutability": "view",
      "type": "function"
    },
    {
      "inputs": [
        {
          "internalType": "contract IERC20Upgradeable",
          "name": "token",
          "type": "address"
        }
      ],
      "name": "getEarnings",
      "outputs": [],
      "stateMutability": "nonpayable",
      "type": "function"
    },
    {
      "inputs": [
        {
          "internalType": "address",
          "name": "collection",
          "type": "address"
        },
        {
          "internalType": "uint256",
          "name": "tokenId",
          "type": "uint256"
        }
      ],
      "name": "getTotalProposals",
      "outputs": [
        {
          "internalType": "uint256",
          "name": "",
          "type": "uint256"
        }
      ],
      "stateMutability": "view",
      "type": "function"
    },
    {
      "inputs": [
        {
          "internalType": "address",
          "name": "collection",
          "type": "address"
        },
        {
          "internalType": "address",
          "name": "user",
          "type": "address"
        },
        {
          "internalType": "uint256",
          "name": "index",
          "type": "uint256"
        }
      ],
      "name": "getUserLoanId",
      "outputs": [
        {
          "internalType": "uint256",
          "name": "",
          "type": "uint256"
        }
      ],
      "stateMutability": "view",
      "type": "function"
    },
    {
      "inputs": [
        {
          "internalType": "address",
          "name": "collection",
          "type": "address"
        },
        {
          "internalType": "address",
          "name": "user",
          "type": "address"
        }
      ],
      "name": "getUserLoansCount",
      "outputs": [
        {
          "internalType": "uint256",
          "name": "",
          "type": "uint256"
        }
      ],
      "stateMutability": "view",
      "type": "function"
    },
    {
      "inputs": [
        {
          "internalType": "address",
          "name": "feeTo",
          "type": "address"
        }
      ],
      "name": "initialize",
      "outputs": [],
      "stateMutability": "nonpayable",
      "type": "function"
    },
    {
      "inputs": [
        {
          "internalType": "contract IERC721Upgradeable",
          "name": "collection",
          "type": "address"
        },
        {
          "internalType": "uint256",
          "name": "tokenId",
          "type": "uint256"
        }
      ],
      "name": "lenderStartLoan",
      "outputs": [],
      "stateMutability": "payable",
      "type": "function"
    },
    {
      "inputs": [
        {
          "internalType": "contract IERC721Upgradeable",
          "name": "collection",
          "type": "address"
        },
        {
          "internalType": "uint256",
          "name": "tokenId",
          "type": "uint256"
        }
      ],
      "name": "liquidate",
      "outputs": [],
      "stateMutability": "nonpayable",
      "type": "function"
    },
    {
      "inputs": [
        {
          "internalType": "address",
          "name": "",
          "type": "address"
        },
        {
          "internalType": "uint256",
          "name": "",
          "type": "uint256"
        }
      ],
      "name": "loans",
      "outputs": [
        {
          "internalType": "address",
          "name": "lender",
          "type": "address"
        },
        {
          "internalType": "address",
          "name": "borrower",
          "type": "address"
        },
        {
          "internalType": "contract IERC20Upgradeable",
          "name": "loanToken",
          "type": "address"
        },
        {
          "internalType": "uint64",
          "name": "interestRate",
          "type": "uint64"
        },
        {
          "internalType": "uint64",
          "name": "tokenId",
          "type": "uint64"
        },
        {
          "internalType": "uint64",
          "name": "maturity",
          "type": "uint64"
        },
        {
          "internalType": "uint64",
          "name": "startDate",
          "type": "uint64"
        },
        {
          "internalType": "uint256",
          "name": "principal",
          "type": "uint256"
        }
      ],
      "stateMutability": "view",
      "type": "function"
    },
    {
      "inputs": [
        {
          "internalType": "address",
          "name": "",
          "type": "address"
        },
        {
          "internalType": "address",
          "name": "",
          "type": "address"
        },
        {
          "internalType": "uint256",
          "name": "",
          "type": "uint256"
        },
        {
          "internalType": "bytes",
          "name": "",
          "type": "bytes"
        }
      ],
      "name": "onERC721Received",
      "outputs": [
        {
          "internalType": "bytes4",
          "name": "",
          "type": "bytes4"
        }
      ],
      "stateMutability": "nonpayable",
      "type": "function"
    },
    {
      "inputs": [],
      "name": "owner",
      "outputs": [
        {
          "internalType": "address",
          "name": "",
          "type": "address"
        }
      ],
      "stateMutability": "view",
      "type": "function"
    },
    {
      "inputs": [
        {
          "internalType": "address",
          "name": "",
          "type": "address"
        },
        {
          "internalType": "uint256",
          "name": "",
          "type": "uint256"
        },
        {
          "internalType": "address",
          "name": "",
          "type": "address"
        }
      ],
      "name": "proposals",
      "outputs": [
        {
          "internalType": "contract IERC20Upgradeable",
          "name": "loanToken",
          "type": "address"
        },
        {
          "internalType": "address",
          "name": "lender",
          "type": "address"
        },
        {
          "internalType": "uint64",
          "name": "maturity",
          "type": "uint64"
        },
        {
          "internalType": "uint64",
          "name": "interestRate",
          "type": "uint64"
        },
        {
          "internalType": "uint128",
          "name": "principal",
          "type": "uint128"
        }
      ],
      "stateMutability": "view",
      "type": "function"
    },
    {
      "inputs": [
        {
          "internalType": "contract IERC721Upgradeable",
          "name": "collection",
          "type": "address"
        },
        {
          "internalType": "contract IERC20Upgradeable",
          "name": "loanToken",
          "type": "address"
        },
        {
          "internalType": "uint256",
          "name": "tokenId",
          "type": "uint256"
        },
        {
          "internalType": "uint128",
          "name": "principal",
          "type": "uint128"
        },
        {
          "internalType": "uint64",
          "name": "interestRate",
          "type": "uint64"
        },
        {
          "internalType": "uint64",
          "name": "maturity",
          "type": "uint64"
        }
      ],
      "name": "proposeLoan",
      "outputs": [],
      "stateMutability": "nonpayable",
      "type": "function"
    },
    {
      "inputs": [],
      "name": "proxiableUUID",
      "outputs": [
        {
          "internalType": "bytes32",
          "name": "",
          "type": "bytes32"
        }
      ],
      "stateMutability": "view",
      "type": "function"
    },
    {
      "inputs": [],
      "name": "renounceOwnership",
      "outputs": [],
      "stateMutability": "nonpayable",
      "type": "function"
    },
    {
      "inputs": [
        {
          "internalType": "contract IERC721Upgradeable",
          "name": "collection",
          "type": "address"
        },
        {
          "internalType": "uint256",
          "name": "tokenId",
          "type": "uint256"
        }
      ],
      "name": "repay",
      "outputs": [],
      "stateMutability": "payable",
      "type": "function"
    },
    {
      "inputs": [
        {
          "internalType": "address",
          "name": "newOwner",
          "type": "address"
        }
      ],
      "name": "transferOwnership",
      "outputs": [],
      "stateMutability": "nonpayable",
      "type": "function"
    },
    {
      "inputs": [
        {
          "internalType": "address",
          "name": "newImplementation",
          "type": "address"
        }
      ],
      "name": "upgradeTo",
      "outputs": [],
      "stateMutability": "nonpayable",
      "type": "function"
    },
    {
      "inputs": [
        {
          "internalType": "address",
          "name": "newImplementation",
          "type": "address"
        },
        {
          "internalType": "bytes",
          "name": "data",
          "type": "bytes"
        }
      ],
      "name": "upgradeToAndCall",
      "outputs": [],
      "stateMutability": "payable",
      "type": "function"
    },
    {
      "inputs": [
        {
          "internalType": "contract IERC721Upgradeable",
          "name": "collection",
          "type": "address"
        },
        {
          "internalType": "uint256",
          "name": "tokenId",
          "type": "uint256"
        },
        {
          "internalType": "address payable",
          "name": "to",
          "type": "address"
        }
      ],
      "name": "withdrawBNB",
      "outputs": [],
      "stateMutability": "nonpayable",
      "type": "function"
    },
    {
      "inputs": [
        {
          "internalType": "contract IERC721Upgradeable",
          "name": "collection",
          "type": "address"
        },
        {
          "internalType": "uint256",
          "name": "tokenId",
          "type": "uint256"
        }
      ],
      "name": "withdrawNFT",
      "outputs": [],
      "stateMutability": "nonpayable",
      "type": "function"
    }
  ],
  "bytecode": "0x60a06040523060805234801561001457600080fd5b50608051613b6461004c600039600081816114fb0152818161153b015281816117ec0152818161182c01526118bb0152613b646000f3fe60806040526004361061014b5760003560e01c8063715018a6116100b6578063c4d66de81161006f578063c4d66de814610510578063e58b87dd14610530578063e629422e14610543578063e841761114610563578063f2fde38b14610584578063ff4cbebe146105a457600080fd5b8063715018a61461038157806376b27621146103965780638da5cb5b146103b657806398c61c37146103e8578063ae37a957146104d0578063bcbaf487146104f057600080fd5b8063374ce0bd11610108578063374ce0bd1461022157806339614c6a1461024157806340c6e3a51461026f5780634f1ef2861461033957806352d1902d1461034c5780636088e93a1461036157600080fd5b8063131b9c0414610150578063150b7a02146101725780631b324013146101bb57806322867d78146101ce57806330b1f406146101e15780633659cfe614610201575b600080fd5b34801561015c57600080fd5b5061017061016b366004613407565b6105c4565b005b34801561017e57600080fd5b5061019d61018d3660046134c6565b630a85bd0160e11b949350505050565b6040516001600160e01b031990911681526020015b60405180910390f35b6101706101c936600461354d565b610678565b6101706101dc3660046135cc565b610ca6565b3480156101ed57600080fd5b506101706101fc3660046135f8565b61104a565b34801561020d57600080fd5b5061017061021c366004613407565b6114f0565b34801561022d57600080fd5b5061017061023c3660046135f8565b6115d0565b34801561024d57600080fd5b5061026161025c3660046135cc565b6117ab565b6040519081526020016101b2565b34801561027b57600080fd5b506102f161028a3660046135f8565b6101316020908152600093845260408085208252928452828420905282529020805460018201546002909201546001600160a01b039182169291821691600160a01b90046001600160401b039081169190811690600160401b90046001600160801b031685565b604080516001600160a01b0396871681529590941660208601526001600160401b03928316938501939093521660608301526001600160801b0316608082015260a0016101b2565b61017061034736600461363a565b6117e1565b34801561035857600080fd5b506102616118ae565b34801561036d57600080fd5b5061017061037c3660046135cc565b611961565b34801561038d57600080fd5b50610170611b7f565b3480156103a257600080fd5b506101706103b136600461354d565b611bb5565b3480156103c257600080fd5b506097546001600160a01b03165b6040516001600160a01b0390911681526020016101b2565b3480156103f457600080fd5b506104766104033660046135cc565b61012f602090815260009283526040808420909152908252902080546001820154600283015460038401546004909401546001600160a01b0393841694928416938216926001600160401b03600160a01b90930483169281811692600160401b8304821692600160801b90049091169088565b604080516001600160a01b03998a168152978916602089015295909716948601949094526001600160401b0392831660608601529082166080850152811660a08401521660c082015260e0810191909152610100016101b2565b3480156104dc57600080fd5b506103d06104eb366004613689565b611f91565b3480156104fc57600080fd5b5061017061050b3660046135cc565b611fc9565b34801561051c57600080fd5b5061017061052b366004613407565b612253565b61017061053e3660046135cc565b612338565b34801561054f57600080fd5b5061026161055e3660046136be565b6126bc565b34801561056f57600080fd5b5061012d546103d0906001600160a01b031681565b34801561059057600080fd5b5061017061059f366004613407565b6126ed565b3480156105b057600080fd5b506102616105bf3660046136f7565b612785565b61012d546001600160a01b039081169082161561065a576040516370a0823160e01b815230600482015261065a9082906001600160a01b038516906370a0823190602401602060405180830381865afa158015610625573d6000803e3d6000fd5b505050506040513d601f19601f820116820180604052508101906106499190613738565b6001600160a01b03851691906127b7565b670de0b6b3a764000047111561067457610674814761281f565b5050565b6000826001600160401b0316116106cf5760405162461bcd60e51b81526020600482015260166024820152754e46544d3a206e6f20696e746572657374207261746560501b60448201526064015b60405180910390fd5b6000816001600160401b03161161071c5760405162461bcd60e51b81526020600482015260116024820152704e46544d3a206e6f206d6174757269747960781b60448201526064016106c6565b6000836001600160801b03161161076a5760405162461bcd60e51b8152602060048201526012602482015271139195134e881b9bc81c1c9a5b98da5c185b60721b60448201526064016106c6565b6001600160a01b03868116600090815261012f6020908152604080832088845282529182902082516101008101845281548516815260018201548516928101839052600282015494851693810193909352600160a01b9093046001600160401b03908116606084015260038401548082166080850152600160401b8104821660a0850152600160801b90041660c083015260049092015460e08201529033141561084a5760405162461bcd60e51b8152602060048201526011602482015270139195134e881b9bdd08185b1b1bddd959607a1b60448201526064016106c6565b60208101516001600160a01b031615801590610871575060c08101516001600160401b0316155b6108bd5760405162461bcd60e51b815260206004820152601760248201527f4e46544d3a206e6f206c6f616e20617661696c61626c6500000000000000000060448201526064016106c6565b6001600160a01b038716600090815261013160209081526040808320888452909152812081336001600160a01b0390811682526020808301939093526040918201600020825160a081018452600190910154821693810193909352891682526001600160801b03871660808301526001600160401b0385811691830191909152851660608201529050336001600160a01b039081166020838101919091529089166000908152610131825260408082208983529092529081208291336001600160a01b0390811682526020808301939093526040918201600020845181546001600160a01b0319169083161781559284015160018401805493860151919092166001600160e01b031990931692909217600160a01b6001600160401b0393841602179055606083015160029092018054608090940151929091166001600160c01b031990931692909217600160401b6001600160801b0390921691909102179055610a4c336001600160a01b038a166000908152610130602090815260408083208b845290915290209061292a565b506001600160a01b038816600090815261012e60205260408120610a8e91889190335b6001600160a01b0316815260208101919091526040016000209061293f565b506001600160a01b038716610af257846001600160801b0316341015610aed5760405162461bcd60e51b815260206004820152601460248201527327232a269d103737ba1032b737bab3b41021272160611b60448201526064016106c6565b610c4a565b6001600160801b0385166001600160a01b03881663dd62ed3e336040516001600160e01b031960e084901b1681526001600160a01b039091166004820152306024820152604401602060405180830381865afa158015610b56573d6000803e3d6000fd5b505050506040513d601f19601f82011682018060405250810190610b7a9190613738565b10158015610c0857506001600160801b0385166001600160a01b0388166370a08231336040516001600160e01b031960e084901b1681526001600160a01b039091166004820152602401602060405180830381865afa158015610be1573d6000803e3d6000fd5b505050506040513d601f19601f82011682018060405250810190610c059190613738565b10155b610c4a5760405162461bcd60e51b8152602060048201526013602482015272139195134e881b99595908185c1c1c9bdd985b606a1b60448201526064016106c6565b85336001600160a01b0316896001600160a01b03167f986f2eee35822baf1bc59fa72d080614aef9c7517013b924706014ee608ccf828a898989604051610c949493929190613751565b60405180910390a45050505050505050565b60026001541415610cc95760405162461bcd60e51b81526004016106c69061378c565b600260018181556001600160a01b03808516600090815261012f602090815260408083208784528252918290208251610100810184528154851681529481015484169185019190915293840154918216908301526001600160401b03600160a01b9091048116606083015260038301548082166080840152600160401b8104821660a0840152600160801b90041660c0820181905260049092015460e082015290610da65760405162461bcd60e51b815260206004820152600d60248201526c27232a269d103737903637b0b760991b60448201526064016106c6565b60008160c001516001600160401b031642610dc191906137d9565b90506000610de583606001516001600160401b03168361294b90919063ffffffff16565b90506000610dfa8266470de4df82000061294b565b90506000828560e00151610e0e91906137f0565b6001600160a01b03808916600081815261012f602090815260408083208c8452825280832080546001600160a01b0319908116825560018201805490911690556002810180546001600160e01b03191690556003810180546001600160c01b031916905560040183905592825261012e81528282208a8201519094168252929092529020909150610e9f9087612960565b506001600160a01b03808816600090815261012e602090815260408083208951909416835292905220610ed29087612960565b5060408501516001600160a01b0316610f4857610eef82826137f0565b341015610f375760405162461bcd60e51b8152602060048201526016602482015275139195134e881a5b98dbdc9c9958dd08185b5bdd5b9d60521b60448201526064016106c6565b8451610f43908261281f565b610f7e565b610f6433865160408801516001600160a01b031691908461296c565b610f7e3360408701516001600160a01b031690308561296c565b6020850151604051632142170760e11b81526001600160a01b038916916342842e0e91610fb19130918b90600401613808565b600060405180830381600087803b158015610fcb57600080fd5b505af1158015610fdf573d6000803e3d6000fd5b505050506020858101518651604080516001600160a01b03928316815293840185905283018590529081169188918a16907fb3116d088ba94cc6c8f1e64868cc7b79b9bfef08e3ea8c3c6e4f03b97c804bd29060600160405180910390a45050600180555050505050565b6002600154141561106d5760405162461bcd60e51b81526004016106c69061378c565b600260018181556001600160a01b03808616600090815261012f602090815260408083208884528252918290208251610100810184528154851681529481015484169185019190915293840154918216908301526001600160401b03600160a01b9091048116606083015260038301548082166080840152600160401b8104821660a0840152600160801b90041660c0820181905260049092015460e0820152901561112b5760405162461bcd60e51b81526004016106c69061382c565b60208101516001600160a01b031633146111575760405162461bcd60e51b81526004016106c69061385c565b6001600160a01b0384811660009081526101316020908152604080832087845282528083208685168452825291829020825160a0810184528154851681526001820154948516928101839052600160a01b9094046001600160401b0390811693850193909352600201549182166060840152600160401b9091046001600160801b03166080830152158015906111fa575060208101516001600160a01b03163314155b6112465760405162461bcd60e51b815260206004820152601860248201527f4e46544d3a2070726f706f73616c206e6f7420666f756e64000000000000000060448201526064016106c6565b61124f42612993565b6001600160401b0390811660c084019081526020808401516001600160a01b03908116865260608086015185169087019081526080808701516001600160801b031660e08901908152875184166040808b01918252808a0151891660a08c019081528e8716600090815261012f89528281208f825289529182208c5181549089166001600160a01b0319918216178255988d0151600182018054918a1691909a1617909855915160028801805496518b16600160a01b026001600160e01b031990971691909716179490941790945590880151600385018054945196518816600160801b0267ffffffffffffffff60801b19978916600160401b026001600160801b0319909616929098169190911793909317949094169490941790559051600490910181905561138890670dcef33a6f83800061294b565b6020808401516001600160a01b0389166000908152610130835260408082208a8352909352919091209192506113be91906129ff565b506001600160a01b03868116600090815261013160209081526040808320898452825280832086830151851684529091529081902080546001600160a01b03191681556001810180546001600160e01b031916905560020180546001600160c01b03191690558401511661143f5761143a83602001518261281f565b611488565b825160e08401516040850151611462926001600160a01b0390911691309061296c565b61148883602001518285604001516001600160a01b03166127b79092919063ffffffff16565b82602001516001600160a01b031685876001600160a01b03167fc52b71da948d4845730edf3f18e3b3b13962f91e12f62d546341105786ddba8486600001518760400151866040516114dc93929190613808565b60405180910390a450506001805550505050565b306001600160a01b037f00000000000000000000000000000000000000000000000000000000000000001614156115395760405162461bcd60e51b81526004016106c690613889565b7f00000000000000000000000000000000000000000000000000000000000000006001600160a01b0316611582600080516020613ae8833981519152546001600160a01b031690565b6001600160a01b0316146115a85760405162461bcd60e51b81526004016106c6906138d5565b6115b181612a14565b604080516000808252602082019092526115cd91839190612a3e565b50565b600260015414156115f35760405162461bcd60e51b81526004016106c69061378c565b600260018181556001600160a01b0385811660009081526101316020908152604080832088845282528083203380855290835292819020815160a08101835281548616815295810154948516928601839052600160a01b9094046001600160401b039081169186019190915292909401549182166060840152600160401b9091046001600160801b031660808301529091146116a15760405162461bcd60e51b81526004016106c69061385c565b60808101516020808301516001600160a01b038716600090815261013083526040808220888352909352919091206001600160801b03909216916116e4916129ff565b506001600160a01b0380861660009081526101316020908152604080832088845282528083208683015190941683529290522080546001600160a01b03191681556001810180546001600160e01b031916905560020180546001600160c01b0319169055611752838261281f565b826001600160a01b031684866001600160a01b03167f6e85ed54eb6c08c83a0817650d608f6ad4a3a4dc74820d52d2812ebb766802e88460405161179891815260200190565b60405180910390a4505060018055505050565b6001600160a01b03821660009081526101306020908152604080832084845290915281206117d890612ba9565b90505b92915050565b306001600160a01b037f000000000000000000000000000000000000000000000000000000000000000016141561182a5760405162461bcd60e51b81526004016106c690613889565b7f00000000000000000000000000000000000000000000000000000000000000006001600160a01b0316611873600080516020613ae8833981519152546001600160a01b031690565b6001600160a01b0316146118995760405162461bcd60e51b81526004016106c6906138d5565b6118a282612a14565b61067482826001612a3e565b6000306001600160a01b037f0000000000000000000000000000000000000000000000000000000000000000161461194e5760405162461bcd60e51b815260206004820152603860248201527f555550535570677261646561626c653a206d757374206e6f742062652063616c60448201527f6c6564207468726f7567682064656c656761746563616c6c000000000000000060648201526084016106c6565b50600080516020613ae883398151915290565b6001600160a01b03828116600090815261012f602090815260408083208584528252918290208251610100810184528154851681526001820154851692810192909252600281015493841692820192909252600160a01b9092046001600160401b03908116606084015260038201548082166080850152600160401b8104821660a0850152600160801b90041660c0830181905260049091015460e083015215611a1d5760405162461bcd60e51b81526004016106c69061382c565b60208101516001600160a01b03163314611a495760405162461bcd60e51b81526004016106c69061385c565b6001600160a01b038316600081815261012f60209081526040808320868452825280832080546001600160a01b0319908116825560018201805490911690556002810180546001600160e01b03191690556003810180546001600160c01b031916905560040183905592825261012e8152828220338352905220611acd9083612960565b506020810151604051632142170760e11b81526001600160a01b038516916342842e0e91611b019130918790600401613808565b600060405180830381600087803b158015611b1b57600080fd5b505af1158015611b2f573d6000803e3d6000fd5b50505050611b3a3390565b6001600160a01b031682846001600160a01b03167f065006abef0bc04f8e51f521ca13896f7f56c6aff3708cd77da746758b45c16c60405160405180910390a4505050565b6097546001600160a01b03163314611ba95760405162461bcd60e51b81526004016106c690613921565b611bb36000612bb3565b565b6000826001600160401b031611611c075760405162461bcd60e51b81526020600482015260166024820152754e46544d3a206e6f20696e746572657374207261746560501b60448201526064016106c6565b6000816001600160401b031611611c545760405162461bcd60e51b81526020600482015260116024820152704e46544d3a206e6f206d6174757269747960781b60448201526064016106c6565b6000836001600160801b031611611ca25760405162461bcd60e51b8152602060048201526012602482015271139195134e881b9bc81c1c9a5b98da5c185b60721b60448201526064016106c6565b604051632142170760e11b81526001600160a01b038716906342842e0e90611cd290339030908990600401613808565b600060405180830381600087803b158015611cec57600080fd5b505af1158015611d00573d6000803e3d6000fd5b50506040516331a9108f60e11b8152600481018790523092506001600160a01b0389169150636352211e90602401602060405180830381865afa158015611d4b573d6000803e3d6000fd5b505050506040513d601f19601f82011682018060405250810190611d6f9190613956565b6001600160a01b031614611d8557611d85613973565b6001600160a01b03808716600090815261012f602090815260408083208884528252918290208251610100810184528154851681526001820154851692810192909252600301546001600160401b038181166080840152600160801b909104811660c0830152928816918101919091526001600160801b03851660e082015282821660a08201529083166060820152611e1d85612993565b6001600160401b03166080820152336001600160a01b039081166020808401918252898316600081815261012f835260408082208b83528452808220875181549088166001600160a01b0319918216178255955160018201805491891691909716179095558087015160028601805460608a01516001600160401b03908116600160a01b026001600160e01b03199092169390991692909217919091179055608087015160038601805460a08a015160c08b01518a16600160801b0267ffffffffffffffff60801b19918b16600160401b026001600160801b031990931694909a169390931717919091169690961790955560e0860151600490940193909355825261012e9052908120611f3591879190610a6f3390565b5084336001600160a01b0316886001600160a01b03167f6e193911fb0ddedaa9260719ff7cd1e6c4caa2cc9fc9de086c9a65db6841d87989888888604051611f809493929190613751565b60405180910390a450505050505050565b6001600160a01b0383166000908152610130602090815260408083208584529091528120611fbf9083612c05565b90505b9392505050565b6001600160a01b03828116600090815261012f602090815260408083208584528252918290208251610100810184528154851681526001820154851692810192909252600281015493841692820192909252600160a01b9092046001600160401b03908116606084015260038201548082166080850152600160401b8104821660a0850152600160801b90041660c0830181905260049091015460e08301521580159061209257508060a001518160c001516120859190613989565b6001600160401b03164210155b6120de5760405162461bcd60e51b815260206004820152601a60248201527f4e46544d3a2063616e6e6f74206265206c69717569646174656400000000000060448201526064016106c6565b6001600160a01b03808416600081815261012f60209081526040808320878452825280832080546001600160a01b0319908116825560018201805490911690556002810180546001600160e01b03191690556003810180546001600160c01b031916905560040183905592825261012e815282822085820151909416825292909252902061216c9083612960565b506001600160a01b03808416600090815261012e60209081526040808320855190941683529290522061219f9083612960565b508051604051632142170760e11b81526001600160a01b038516916342842e0e916121d09130918790600401613808565b600060405180830381600087803b1580156121ea57600080fd5b505af11580156121fe573d6000803e3d6000fd5b505082516020808501516040516001600160a01b03918216815292811694508693508716917fcf969dcc3b16e78f79f5d7d216984a7f4379d389496d84b5fc1d12aa06c13bb5910160405180910390a4505050565b600054610100900460ff1661226e5760005460ff1615612272565b303b155b6122d55760405162461bcd60e51b815260206004820152602e60248201527f496e697469616c697a61626c653a20636f6e747261637420697320616c72656160448201526d191e481a5b9a5d1a585b1a5e995960921b60648201526084016106c6565b600054610100900460ff161580156122f7576000805461ffff19166101011790555b6122ff612c11565b612307612c40565b61012d80546001600160a01b0319166001600160a01b0384161790558015610674576000805461ff00191690555050565b6002600154141561235b5760405162461bcd60e51b81526004016106c69061378c565b600260018181556001600160a01b03808516600090815261012f602090815260408083208784528252918290208251610100810184528154851681529481015484169185019190915293840154918216908301526001600160401b03600160a01b9091048116606083015260038301548082166080840152600160401b8104821660a0840152600160801b90041660c0820181905260049092015460e082015290156124195760405162461bcd60e51b81526004016106c69061382c565b60208101516001600160a01b03163314801590612442575060208101516001600160a01b031615155b6124875760405162461bcd60e51b815260206004820152601660248201527527232a269d1034b73b30b634b2103137b93937bbb2b960511b60448201526064016106c6565b61249042612993565b6001600160401b031660c082015233815260e08101516000906124bb90670dcef33a6f83800061294b565b6001600160a01b03808616600081815261012f602090815260408083208984528252808320885181549087166001600160a01b0319918216178255838a0151600183018054918916919092161790558189015160028201805460608c01516001600160401b03908116600160a01b026001600160e01b03199092169390991692909217919091179055608089015160038201805460a08c015160c08d01518a16600160801b0267ffffffffffffffff60801b19918b16600160401b026001600160801b031990931694909a169390931717919091169690961790955560e088015160049095019490945591815261012e9091529081209192506125c1918591610a6f3390565b5060408201516001600160a01b031661263b578160e001513410156126285760405162461bcd60e51b815260206004820152601960248201527f4e46544d3a20696e636f7272656374207072696e636970616c0000000000000060448201526064016106c6565b61263682602001518261281f565b61265a565b61265a33602084015160408501516001600160a01b031691908461296c565b336001600160a01b031683856001600160a01b03167fcabe63c09a5202cfe29f29369171680e43315020709bbc903c0ad0fff11e111385602001518660400151866040516126aa93929190613808565b60405180910390a45050600180555050565b6001600160a01b03808316600090815261012e6020908152604080832093851683529290529081206117d890612ba9565b6097546001600160a01b031633146127175760405162461bcd60e51b81526004016106c690613921565b6001600160a01b03811661277c5760405162461bcd60e51b815260206004820152602660248201527f4f776e61626c653a206e6577206f776e657220697320746865207a65726f206160448201526564647265737360d01b60648201526084016106c6565b6115cd81612bb3565b6001600160a01b03808416600090815261012e602090815260408083209386168352929052908120611fbf9083612c05565b6040516001600160a01b03831660248201526044810182905261281a90849063a9059cbb60e01b906064015b60408051601f198184030181529190526020810180516001600160e01b03166001600160e01b031990931692909217909152612c6f565b505050565b804710156128665760405162461bcd60e51b815260206004820152601460248201527327232a269d103737ba1032b737bab3b41021272160611b60448201526064016106c6565b600080836001600160a01b03168360405160006040518083038185875af1925050503d80600081146128b4576040519150601f19603f3d011682016040523d82523d6000602084013e6128b9565b606091505b50915091508181516000146128ce5781612905565b6040518060400160405280601881526020017f4e46544d3a206661696c656420746f2073656e6420424e4200000000000000008152505b906129235760405162461bcd60e51b81526004016106c691906139e0565b5050505050565b60006117d8836001600160a01b038416612d41565b60006117d88383612d41565b60006117d88383670de0b6b3a7640000612d90565b60006117d88383612f0a565b61298d846323b872dd60e01b8585856040516024016127e393929190613808565b50505050565b60006001600160401b038211156129fb5760405162461bcd60e51b815260206004820152602660248201527f53616665436173743a2076616c756520646f65736e27742066697420696e203660448201526534206269747360d01b60648201526084016106c6565b5090565b60006117d8836001600160a01b038416612f0a565b6097546001600160a01b031633146115cd5760405162461bcd60e51b81526004016106c690613921565b7f4910fdfa16fed3260ed0e7147f7cc6da11a60208b5b9406d12a635614ffd91435460ff1615612a715761281a83612ffd565b826001600160a01b03166352d1902d6040518163ffffffff1660e01b8152600401602060405180830381865afa925050508015612acb575060408051601f3d908101601f19168201909252612ac891810190613738565b60015b612b2e5760405162461bcd60e51b815260206004820152602e60248201527f45524331393637557067726164653a206e657720696d706c656d656e7461746960448201526d6f6e206973206e6f74205555505360901b60648201526084016106c6565b600080516020613ae88339815191528114612b9d5760405162461bcd60e51b815260206004820152602960248201527f45524331393637557067726164653a20756e737570706f727465642070726f786044820152681a58589b195555525160ba1b60648201526084016106c6565b5061281a838383613099565b60006117db825490565b609780546001600160a01b038381166001600160a01b0319831681179093556040519116919082907f8be0079c531659141344cd1fd0a4f28419497f9722a3daafe3b4186f6b6457e090600090a35050565b60006117d883836130be565b600054610100900460ff16612c385760405162461bcd60e51b81526004016106c690613a13565b611bb36130e8565b600054610100900460ff16612c675760405162461bcd60e51b81526004016106c690613a13565b611bb3613118565b6000612cc4826040518060400160405280602081526020017f5361666545524332303a206c6f772d6c6576656c2063616c6c206661696c6564815250856001600160a01b03166131459092919063ffffffff16565b80519091501561281a5780806020019051810190612ce29190613a5e565b61281a5760405162461bcd60e51b815260206004820152602a60248201527f5361666545524332303a204552433230206f7065726174696f6e20646964206e6044820152691bdd081cdd58d8d9595960b21b60648201526084016106c6565b6000818152600183016020526040812054612d88575081546001818101845560008481526020808220909301849055845484825282860190935260409020919091556117db565b5060006117db565b600080806000198587098587029250828110838203039150508060001415612dca5760008411612dbf57600080fd5b508290049050611fc2565b808411612dd657600080fd5b6000848688098084039381119092039190506000612df6861960016137f0565b8616958690049593849004936000819003046001019050612e178184613a80565b909317926000612e28876003613a80565b6002189050612e378188613a80565b612e429060026137d9565b612e4c9082613a80565b9050612e588188613a80565b612e639060026137d9565b612e6d9082613a80565b9050612e798188613a80565b612e849060026137d9565b612e8e9082613a80565b9050612e9a8188613a80565b612ea59060026137d9565b612eaf9082613a80565b9050612ebb8188613a80565b612ec69060026137d9565b612ed09082613a80565b9050612edc8188613a80565b612ee79060026137d9565b612ef19082613a80565b9050612efd8186613a80565b9998505050505050505050565b60008181526001830160205260408120548015612ff3576000612f2e6001836137d9565b8554909150600090612f42906001906137d9565b9050818114612fa7576000866000018281548110612f6257612f62613a9f565b9060005260206000200154905080876000018481548110612f8557612f85613a9f565b6000918252602080832090910192909255918252600188019052604090208390555b8554869080612fb857612fb8613ab5565b6001900381819060005260206000200160009055905585600101600086815260200190815260200160002060009055600193505050506117db565b60009150506117db565b6001600160a01b0381163b61306a5760405162461bcd60e51b815260206004820152602d60248201527f455243313936373a206e657720696d706c656d656e746174696f6e206973206e60448201526c1bdd08184818dbdb9d1c9858dd609a1b60648201526084016106c6565b600080516020613ae883398151915280546001600160a01b0319166001600160a01b0392909216919091179055565b6130a283613154565b6000825111806130af5750805b1561281a5761298d8383613194565b60008260000182815481106130d5576130d5613a9f565b9060005260206000200154905092915050565b600054610100900460ff1661310f5760405162461bcd60e51b81526004016106c690613a13565b611bb333612bb3565b600054610100900460ff1661313f5760405162461bcd60e51b81526004016106c690613a13565b60018055565b6060611fbf8484600085613288565b61315d81612ffd565b6040516001600160a01b038216907fbc7cd75a20ee27fd9adebab32041f755214dbc6bffa90cc0225b39da2e5c2d3b90600090a250565b60606001600160a01b0383163b6131fc5760405162461bcd60e51b815260206004820152602660248201527f416464726573733a2064656c65676174652063616c6c20746f206e6f6e2d636f6044820152651b9d1c9858dd60d21b60648201526084016106c6565b600080846001600160a01b0316846040516132179190613acb565b600060405180830381855af49150503d8060008114613252576040519150601f19603f3d011682016040523d82523d6000602084013e613257565b606091505b509150915061327f8282604051806060016040528060278152602001613b08602791396133b9565b95945050505050565b6060824710156132e95760405162461bcd60e51b815260206004820152602660248201527f416464726573733a20696e73756666696369656e742062616c616e636520666f6044820152651c8818d85b1b60d21b60648201526084016106c6565b6001600160a01b0385163b6133405760405162461bcd60e51b815260206004820152601d60248201527f416464726573733a2063616c6c20746f206e6f6e2d636f6e747261637400000060448201526064016106c6565b600080866001600160a01b0316858760405161335c9190613acb565b60006040518083038185875af1925050503d8060008114613399576040519150601f19603f3d011682016040523d82523d6000602084013e61339e565b606091505b50915091506133ae8282866133b9565b979650505050505050565b606083156133c8575081611fc2565b8251156133d85782518084602001fd5b8160405162461bcd60e51b81526004016106c691906139e0565b6001600160a01b03811681146115cd57600080fd5b60006020828403121561341957600080fd5b8135611fc2816133f2565b634e487b7160e01b600052604160045260246000fd5b600082601f83011261344b57600080fd5b81356001600160401b038082111561346557613465613424565b604051601f8301601f19908116603f0116810190828211818310171561348d5761348d613424565b816040528381528660208588010111156134a657600080fd5b836020870160208301376000602085830101528094505050505092915050565b600080600080608085870312156134dc57600080fd5b84356134e7816133f2565b935060208501356134f7816133f2565b92506040850135915060608501356001600160401b0381111561351957600080fd5b6135258782880161343a565b91505092959194509250565b80356001600160401b038116811461354857600080fd5b919050565b60008060008060008060c0878903121561356657600080fd5b8635613571816133f2565b95506020870135613581816133f2565b94506040870135935060608701356001600160801b03811681146135a457600080fd5b92506135b260808801613531565b91506135c060a08801613531565b90509295509295509295565b600080604083850312156135df57600080fd5b82356135ea816133f2565b946020939093013593505050565b60008060006060848603121561360d57600080fd5b8335613618816133f2565b925060208401359150604084013561362f816133f2565b809150509250925092565b6000806040838503121561364d57600080fd5b8235613658816133f2565b915060208301356001600160401b0381111561367357600080fd5b61367f8582860161343a565b9150509250929050565b60008060006060848603121561369e57600080fd5b83356136a9816133f2565b95602085013595506040909401359392505050565b600080604083850312156136d157600080fd5b82356136dc816133f2565b915060208301356136ec816133f2565b809150509250929050565b60008060006060848603121561370c57600080fd5b8335613717816133f2565b92506020840135613727816133f2565b929592945050506040919091013590565b60006020828403121561374a57600080fd5b5051919050565b6001600160a01b039490941684526001600160801b039290921660208401526001600160401b03908116604084015216606082015260800190565b6020808252601f908201527f5265656e7472616e637947756172643a207265656e7472616e742063616c6c00604082015260600190565b634e487b7160e01b600052601160045260246000fd5b6000828210156137eb576137eb6137c3565b500390565b60008219821115613803576138036137c3565b500190565b6001600160a01b039384168152919092166020820152604081019190915260600190565b6020808252601690820152754e46544d3a206c6f616e20696e2070726f677265737360501b604082015260600190565b60208082526013908201527227232a269d103737903832b936b4b9b9b4b7b760691b604082015260600190565b6020808252602c908201527f46756e6374696f6e206d7573742062652063616c6c6564207468726f7567682060408201526b19195b1959d85d1958d85b1b60a21b606082015260800190565b6020808252602c908201527f46756e6374696f6e206d7573742062652063616c6c6564207468726f7567682060408201526b6163746976652070726f787960a01b606082015260800190565b6020808252818101527f4f776e61626c653a2063616c6c6572206973206e6f7420746865206f776e6572604082015260600190565b60006020828403121561396857600080fd5b8151611fc2816133f2565b634e487b7160e01b600052600160045260246000fd5b60006001600160401b038083168185168083038211156139ab576139ab6137c3565b01949350505050565b60005b838110156139cf5781810151838201526020016139b7565b8381111561298d5750506000910152565b60208152600082518060208401526139ff8160408501602087016139b4565b601f01601f19169190910160400192915050565b6020808252602b908201527f496e697469616c697a61626c653a20636f6e7472616374206973206e6f74206960408201526a6e697469616c697a696e6760a81b606082015260800190565b600060208284031215613a7057600080fd5b81518015158114611fc257600080fd5b6000816000190483118215151615613a9a57613a9a6137c3565b500290565b634e487b7160e01b600052603260045260246000fd5b634e487b7160e01b600052603160045260246000fd5b60008251613add8184602087016139b4565b919091019291505056fe360894a13ba1a3210667c828492db98dca3e2076cc3735a920a3ca505d382bbc416464726573733a206c6f772d6c6576656c2064656c65676174652063616c6c206661696c6564a264697066735822122076eebc99e47de4a8e52fa9a4801672e9829c1815bb92e006ee2558dab637668364736f6c634300080a0033",
  "linkReferences": {},
  "deployedLinkReferences": {}
}