{
  "_format": "hh-sol-artifact-1",
  "contractName": "CasaDePapel",
  "sourceName": "@interest-protocol/contracts/CasaDePapel.sol",
  "abi": [
    {
      "anonymous": false,
      "inputs": [
        {
          "indexed": false,
          "internalType": "address",
          "name": "previousAdmin",
          "type": "address"
        },
        {
          "indexed": false,
          "internalType": "address",
          "name": "newAdmin",
          "type": "address"
        }
      ],
      "name": "AdminChanged",
      "type": "event"
    },
    {
      "anonymous": false,
      "inputs": [
        {
          "indexed": true,
          "internalType": "address",
          "name": "beacon",
          "type": "address"
        }
      ],
      "name": "BeaconUpgraded",
      "type": "event"
    },
    {
      "anonymous": false,
      "inputs": [
        {
          "indexed": true,
          "internalType": "address",
          "name": "user",
          "type": "address"
        },
        {
          "indexed": true,
          "internalType": "uint256",
          "name": "poolId",
          "type": "uint256"
        },
        {
          "indexed": false,
          "internalType": "uint256",
          "name": "amount",
          "type": "uint256"
        }
      ],
      "name": "Deposit",
      "type": "event"
    },
    {
      "anonymous": false,
      "inputs": [
        {
          "indexed": true,
          "internalType": "address",
          "name": "user",
          "type": "address"
        },
        {
          "indexed": true,
          "internalType": "uint256",
          "name": "poolId",
          "type": "uint256"
        },
        {
          "indexed": false,
          "internalType": "uint256",
          "name": "amount",
          "type": "uint256"
        }
      ],
      "name": "EmergencyWithdraw",
      "type": "event"
    },
    {
      "anonymous": false,
      "inputs": [
        {
          "indexed": true,
          "internalType": "address",
          "name": "liquidator",
          "type": "address"
        },
        {
          "indexed": true,
          "internalType": "address",
          "name": "debtor",
          "type": "address"
        },
        {
          "indexed": false,
          "internalType": "uint256",
          "name": "amount",
          "type": "uint256"
        }
      ],
      "name": "Liquidate",
      "type": "event"
    },
    {
      "anonymous": false,
      "inputs": [
        {
          "indexed": true,
          "internalType": "address",
          "name": "previousOwner",
          "type": "address"
        },
        {
          "indexed": true,
          "internalType": "address",
          "name": "newOwner",
          "type": "address"
        }
      ],
      "name": "OwnershipTransferred",
      "type": "event"
    },
    {
      "anonymous": false,
      "inputs": [
        {
          "indexed": true,
          "internalType": "address",
          "name": "implementation",
          "type": "address"
        }
      ],
      "name": "Upgraded",
      "type": "event"
    },
    {
      "anonymous": false,
      "inputs": [
        {
          "indexed": true,
          "internalType": "address",
          "name": "user",
          "type": "address"
        },
        {
          "indexed": true,
          "internalType": "address",
          "name": "recipient",
          "type": "address"
        },
        {
          "indexed": true,
          "internalType": "uint256",
          "name": "poolId",
          "type": "uint256"
        },
        {
          "indexed": false,
          "internalType": "uint256",
          "name": "amount",
          "type": "uint256"
        }
      ],
      "name": "Withdraw",
      "type": "event"
    },
    {
      "inputs": [],
      "name": "INTEREST_TOKEN",
      "outputs": [
        {
          "internalType": "contract InterestToken",
          "name": "",
          "type": "address"
        }
      ],
      "stateMutability": "view",
      "type": "function"
    },
    {
      "inputs": [],
      "name": "STAKED_INTEREST_TOKEN",
      "outputs": [
        {
          "internalType": "contract StakedInterestToken",
          "name": "",
          "type": "address"
        }
      ],
      "stateMutability": "view",
      "type": "function"
    },
    {
      "inputs": [
        {
          "internalType": "uint256",
          "name": "allocationPoints",
          "type": "uint256"
        },
        {
          "internalType": "contract IERC20Upgradeable",
          "name": "token",
          "type": "address"
        },
        {
          "internalType": "bool",
          "name": "update",
          "type": "bool"
        }
      ],
      "name": "addPool",
      "outputs": [],
      "stateMutability": "nonpayable",
      "type": "function"
    },
    {
      "inputs": [
        {
          "internalType": "uint256",
          "name": "poolId",
          "type": "uint256"
        },
        {
          "internalType": "uint256",
          "name": "amount",
          "type": "uint256"
        }
      ],
      "name": "deposit",
      "outputs": [],
      "stateMutability": "nonpayable",
      "type": "function"
    },
    {
      "inputs": [],
      "name": "devAccount",
      "outputs": [
        {
          "internalType": "address",
          "name": "",
          "type": "address"
        }
      ],
      "stateMutability": "view",
      "type": "function"
    },
    {
      "inputs": [
        {
          "internalType": "uint256",
          "name": "poolId",
          "type": "uint256"
        }
      ],
      "name": "emergencyWithdraw",
      "outputs": [],
      "stateMutability": "nonpayable",
      "type": "function"
    },
    {
      "inputs": [],
      "name": "getPoolsLength",
      "outputs": [
        {
          "internalType": "uint256",
          "name": "",
          "type": "uint256"
        }
      ],
      "stateMutability": "view",
      "type": "function"
    },
    {
      "inputs": [
        {
          "internalType": "address",
          "name": "",
          "type": "address"
        }
      ],
      "name": "hasPool",
      "outputs": [
        {
          "internalType": "bool",
          "name": "",
          "type": "bool"
        }
      ],
      "stateMutability": "view",
      "type": "function"
    },
    {
      "inputs": [
        {
          "internalType": "contract InterestToken",
          "name": "interestToken",
          "type": "address"
        },
        {
          "internalType": "contract StakedInterestToken",
          "name": "stakedInterestToken",
          "type": "address"
        },
        {
          "internalType": "address",
          "name": "_devAccount",
          "type": "address"
        },
        {
          "internalType": "uint256",
          "name": "_interestTokenPerBlock",
          "type": "uint256"
        },
        {
          "internalType": "uint256",
          "name": "_startBlock",
          "type": "uint256"
        }
      ],
      "name": "initialize",
      "outputs": [],
      "stateMutability": "nonpayable",
      "type": "function"
    },
    {
      "inputs": [],
      "name": "interestTokenPerBlock",
      "outputs": [
        {
          "internalType": "uint256",
          "name": "",
          "type": "uint256"
        }
      ],
      "stateMutability": "view",
      "type": "function"
    },
    {
      "inputs": [],
      "name": "owner",
      "outputs": [
        {
          "internalType": "address",
          "name": "",
          "type": "address"
        }
      ],
      "stateMutability": "view",
      "type": "function"
    },
    {
      "inputs": [
        {
          "internalType": "uint256",
          "name": "poolId",
          "type": "uint256"
        },
        {
          "internalType": "address",
          "name": "_user",
          "type": "address"
        }
      ],
      "name": "pendingRewards",
      "outputs": [
        {
          "internalType": "uint256",
          "name": "",
          "type": "uint256"
        }
      ],
      "stateMutability": "view",
      "type": "function"
    },
    {
      "inputs": [
        {
          "internalType": "uint256",
          "name": "",
          "type": "uint256"
        }
      ],
      "name": "pools",
      "outputs": [
        {
          "internalType": "contract IERC20Upgradeable",
          "name": "stakingToken",
          "type": "address"
        },
        {
          "internalType": "uint256",
          "name": "allocationPoints",
          "type": "uint256"
        },
        {
          "internalType": "uint256",
          "name": "lastRewardBlock",
          "type": "uint256"
        },
        {
          "internalType": "uint256",
          "name": "accruedIntPerShare",
          "type": "uint256"
        },
        {
          "internalType": "uint256",
          "name": "totalSupply",
          "type": "uint256"
        }
      ],
      "stateMutability": "view",
      "type": "function"
    },
    {
      "inputs": [],
      "name": "proxiableUUID",
      "outputs": [
        {
          "internalType": "bytes32",
          "name": "",
          "type": "bytes32"
        }
      ],
      "stateMutability": "view",
      "type": "function"
    },
    {
      "inputs": [],
      "name": "renounceOwnership",
      "outputs": [],
      "stateMutability": "nonpayable",
      "type": "function"
    },
    {
      "inputs": [
        {
          "internalType": "uint256",
          "name": "poolId",
          "type": "uint256"
        },
        {
          "internalType": "uint256",
          "name": "allocationPoints",
          "type": "uint256"
        },
        {
          "internalType": "bool",
          "name": "update",
          "type": "bool"
        }
      ],
      "name": "setAllocationPoints",
      "outputs": [],
      "stateMutability": "nonpayable",
      "type": "function"
    },
    {
      "inputs": [
        {
          "internalType": "address",
          "name": "account",
          "type": "address"
        }
      ],
      "name": "setDevAccount",
      "outputs": [],
      "stateMutability": "nonpayable",
      "type": "function"
    },
    {
      "inputs": [
        {
          "internalType": "uint256",
          "name": "_interestTokenPerBlock",
          "type": "uint256"
        },
        {
          "internalType": "bool",
          "name": "update",
          "type": "bool"
        }
      ],
      "name": "setIntPerBlock",
      "outputs": [],
      "stateMutability": "nonpayable",
      "type": "function"
    },
    {
      "inputs": [
        {
          "internalType": "uint256",
          "name": "amount",
          "type": "uint256"
        }
      ],
      "name": "stake",
      "outputs": [],
      "stateMutability": "nonpayable",
      "type": "function"
    },
    {
      "inputs": [],
      "name": "startBlock",
      "outputs": [
        {
          "internalType": "uint256",
          "name": "",
          "type": "uint256"
        }
      ],
      "stateMutability": "view",
      "type": "function"
    },
    {
      "inputs": [],
      "name": "totalAllocationPoints",
      "outputs": [
        {
          "internalType": "uint256",
          "name": "",
          "type": "uint256"
        }
      ],
      "stateMutability": "view",
      "type": "function"
    },
    {
      "inputs": [
        {
          "internalType": "address",
          "name": "newOwner",
          "type": "address"
        }
      ],
      "name": "transferOwnership",
      "outputs": [],
      "stateMutability": "nonpayable",
      "type": "function"
    },
    {
      "inputs": [
        {
          "internalType": "address",
          "name": "account",
          "type": "address"
        },
        {
          "internalType": "address",
          "name": "recipient",
          "type": "address"
        },
        {
          "internalType": "uint256",
          "name": "amount",
          "type": "uint256"
        }
      ],
      "name": "unstake",
      "outputs": [],
      "stateMutability": "nonpayable",
      "type": "function"
    },
    {
      "inputs": [],
      "name": "updateAllPools",
      "outputs": [],
      "stateMutability": "nonpayable",
      "type": "function"
    },
    {
      "inputs": [
        {
          "internalType": "uint256",
          "name": "poolId",
          "type": "uint256"
        }
      ],
      "name": "updatePool",
      "outputs": [],
      "stateMutability": "nonpayable",
      "type": "function"
    },
    {
      "inputs": [
        {
          "internalType": "address",
          "name": "newImplementation",
          "type": "address"
        }
      ],
      "name": "upgradeTo",
      "outputs": [],
      "stateMutability": "nonpayable",
      "type": "function"
    },
    {
      "inputs": [
        {
          "internalType": "address",
          "name": "newImplementation",
          "type": "address"
        },
        {
          "internalType": "bytes",
          "name": "data",
          "type": "bytes"
        }
      ],
      "name": "upgradeToAndCall",
      "outputs": [],
      "stateMutability": "payable",
      "type": "function"
    },
    {
      "inputs": [
        {
          "internalType": "uint256",
          "name": "",
          "type": "uint256"
        },
        {
          "internalType": "address",
          "name": "",
          "type": "address"
        }
      ],
      "name": "userInfo",
      "outputs": [
        {
          "internalType": "uint256",
          "name": "amount",
          "type": "uint256"
        },
        {
          "internalType": "uint256",
          "name": "rewardsPaid",
          "type": "uint256"
        }
      ],
      "stateMutability": "view",
      "type": "function"
    },
    {
      "inputs": [
        {
          "internalType": "uint256",
          "name": "poolId",
          "type": "uint256"
        },
        {
          "internalType": "uint256",
          "name": "amount",
          "type": "uint256"
        }
      ],
      "name": "withdraw",
      "outputs": [],
      "stateMutability": "nonpayable",
      "type": "function"
    }
  ],
  "bytecode": "0x60a06040523060805234801561001457600080fd5b506080516130a261004c600039600081816105cc0152818161061501528181610ab101528181610af10152610d9a01526130a26000f3fe6080604052600436106101c25760003560e01c80638da5cb5b116100f7578063b9ec7d7411610095578063da2afc0e11610064578063da2afc0e1461054b578063e2bbb1581461056b578063e7f3fbde1461058b578063f2fde38b146105a157600080fd5b8063b9ec7d74146104eb578063c640966b14610500578063ce883cdb14610516578063d18df53c1461052b57600080fd5b8063a6b63eb8116100d1578063a6b63eb814610439578063ac4afa3814610459578063aecb9ca7146104ab578063b76628d2146104cb57600080fd5b80638da5cb5b146103a757806393f1a40b146103c5578063a694fc3a1461041957600080fd5b806352d1902d11610164578063691edfda1161013e578063691edfda1461031a578063715018a6146103525780637abceffd146103675780637e6393c81461038757600080fd5b806352d1902d146102c55780635312ea8e146102da57806360829f8a146102fa57600080fd5b806348cd4cb1116101a057806348cd4cb11461024e57806348f0e249146102725780634f1ef2861461029257806351eb05a6146102a557600080fd5b80631246dbf5146101c75780633659cfe61461020c578063441a3e701461022e575b600080fd5b3480156101d357600080fd5b506101f76101e2366004612ae4565b60cf6020526000908152604090205460ff1681565b60405190151581526020015b60405180910390f35b34801561021857600080fd5b5061022c610227366004612ae4565b6105c1565b005b34801561023a57600080fd5b5061022c610249366004612b01565b6106aa565b34801561025a57600080fd5b5061026460d15481565b604051908152602001610203565b34801561027e57600080fd5b5061022c61028d366004612b31565b6109dd565b61022c6102a0366004612b80565b610aa6565b3480156102b157600080fd5b5061022c6102c0366004612c44565b610b77565b3480156102d157600080fd5b50610264610d8d565b3480156102e657600080fd5b5061022c6102f5366004612c44565b610e40565b34801561030657600080fd5b5061022c610315366004612c5d565b610f8a565b34801561032657600080fd5b5060cc5461033a906001600160a01b031681565b6040516001600160a01b039091168152602001610203565b34801561035e57600080fd5b5061022c6110c6565b34801561037357600080fd5b5061022c610382366004612c9e565b6110fc565b34801561039357600080fd5b5061022c6103a2366004612cd5565b61130f565b3480156103b357600080fd5b506033546001600160a01b031661033a565b3480156103d157600080fd5b506104046103e0366004612d05565b60ce6020908152600092835260408084209091529082529020805460019091015482565b60408051928352602083019190915201610203565b34801561042557600080fd5b5061022c610434366004612c44565b61134f565b34801561044557600080fd5b5061022c610454366004612d2a565b611668565b34801561046557600080fd5b50610479610474366004612c44565b611896565b604080516001600160a01b0390961686526020860194909452928401919091526060830152608082015260a001610203565b3480156104b757600080fd5b5061022c6104c6366004612ae4565b6118e1565b3480156104d757600080fd5b5060ca5461033a906001600160a01b031681565b3480156104f757600080fd5b5061022c611959565b34801561050c57600080fd5b5061026460cb5481565b34801561052257600080fd5b5060cd54610264565b34801561053757600080fd5b50610264610546366004612d05565b611982565b34801561055757600080fd5b5060c95461033a906001600160a01b031681565b34801561057757600080fd5b5061022c610586366004612b01565b611ac1565b34801561059757600080fd5b5061026460d05481565b3480156105ad57600080fd5b5061022c6105bc366004612ae4565b611d9d565b306001600160a01b037f00000000000000000000000000000000000000000000000000000000000000001614156106135760405162461bcd60e51b815260040161060a90612d85565b60405180910390fd5b7f00000000000000000000000000000000000000000000000000000000000000006001600160a01b031661065c600080516020613006833981519152546001600160a01b031690565b6001600160a01b0316146106825760405162461bcd60e51b815260040161060a90612dd1565b61068b81611e35565b604080516000808252602082019092526106a791839190611e5f565b50565b816106f75760405162461bcd60e51b815260206004820152601c60248201527f43503a207573652074686520756e7374616b652066756e6374696f6e00000000604482015260640161060a565b600082815260ce602090815260408083203384529091529020548111156107585760405162461bcd60e51b815260206004820152601560248201527443503a206e6f7420656e6f75676820746f6b656e7360581b604482015260640161060a565b61076182610b77565b600060cd838154811061077657610776612e1d565b600091825260208083206040805160a081018252600590940290910180546001600160a01b031684526001810154848401526002810154848301526003810154606085015260040154608084015286845260ce9091528220909250816107d93390565b6001600160a01b03168152602080820192909252604090810160009081208251808401909352805480845260019091015493830184905260608601519294509092916108259190611fcf565b61082f9190612e49565b905083156108795783826000018181516108499190612e49565b905250608083018051859190610860908390612e49565b9052506108793384516001600160a01b03169086611feb565b6060830151825161088991611fcf565b602083015260cd8054849190879081106108a5576108a5612e1d565b6000918252602080832084516005939093020180546001600160a01b0319166001600160a01b039093169290921782558381015160018084019190915560408086015160028501556060860151600385015560809095015160049093019290925588835260ce81528383203384528152929091208451815591840151910155801561099d5760c9546001600160a01b03166340c10f19336040516001600160e01b031960e084901b1681526001600160a01b03909116600482015260248101849052604401600060405180830381600087803b15801561098457600080fd5b505af1158015610998573d6000803e3d6000fd5b505050505b6040518481528590339081907ff341246adaac6f497bc2a656f546ab9e182111d630394f0c57c710a59a2cb5679060200160405180910390a45050505050565b6033546001600160a01b03163314610a075760405162461bcd60e51b815260040161060a90612e60565b808015610a1657610a16611959565b600060cd8581548110610a2b57610a2b612e1d565b906000526020600020906005020160010154905083811415610a4d5750610aa0565b8360cd8681548110610a6157610a61612e1d565b600091825260209091206001600590920201015560d054610a828282612e49565b9050610a8e8582612e95565b60d08190559050610a9d61204e565b50505b50505050565b306001600160a01b037f0000000000000000000000000000000000000000000000000000000000000000161415610aef5760405162461bcd60e51b815260040161060a90612d85565b7f00000000000000000000000000000000000000000000000000000000000000006001600160a01b0316610b38600080516020613006833981519152546001600160a01b031690565b6001600160a01b031614610b5e5760405162461bcd60e51b815260040161060a90612dd1565b610b6782611e35565b610b7382826001611e5f565b5050565b600060cd8281548110610b8c57610b8c612e1d565b60009182526020918290206040805160a081018252600590930290910180546001600160a01b03168352600181015493830193909352600283015490820181905260038301546060830152600490920154608082015291504311610bee575050565b608081015180610c26574360cd8481548110610c0c57610c0c612e1d565b906000526020600020906005020160020181905550505050565b6000826040015143610c389190612e49565b90506000610c5c846020015160d05460cb5485610c559190612ead565b9190612111565b60c95460cc549192506001600160a01b03908116916340c10f199116610c8a8467016345785d8a0000611fcf565b6040516001600160e01b031960e085901b1681526001600160a01b0390921660048301526024820152604401600060405180830381600087803b158015610cd057600080fd5b505af1158015610ce4573d6000803e3d6000fd5b50505050610cfb838261228b90919063ffffffff16565b84606001818151610d0c9190612e95565b90525043604085015260cd805485919087908110610d2c57610d2c612e1d565b600091825260209182902083516005929092020180546001600160a01b0319166001600160a01b0390921691909117815590820151600182015560408201516002820155606082015160038201556080909101516004909101555050505050565b6000306001600160a01b037f00000000000000000000000000000000000000000000000000000000000000001614610e2d5760405162461bcd60e51b815260206004820152603860248201527f555550535570677261646561626c653a206d757374206e6f742062652063616c60448201527f6c6564207468726f7567682064656c656761746563616c6c0000000000000000606482015260840161060a565b5060008051602061300683398151915290565b600060cd8281548110610e5557610e55612e1d565b6000918252602080832085845260ce90915260408320600590920201925081610e7b3390565b6001600160a01b031681526020810191909152604001600020805490915083610f115760ca546001600160a01b0316639dc29fac336040516001600160e01b031960e084901b1681526001600160a01b03909116600482015260248101849052604401600060405180830381600087803b158015610ef857600080fd5b505af1158015610f0c573d6000803e3d6000fd5b505050505b600080835560018301819055600484018054839290610f31908490612e49565b90915550508254610f4c906001600160a01b03163383611feb565b604051818152849033907fbb757047c2b5f3974fe26b7c10f732e7bce710b0952a71082702781e62ae0595906020015b60405180910390a350505050565b6001600160a01b038316331480611024575060c954600019906001600160a01b031663dd62ed3e85336040516001600160e01b031960e085901b1681526001600160a01b03928316600482015291166024820152604401602060405180830381865afa158015610ffe573d6000803e3d6000fd5b505050506040513d601f19601f820116820180604052508101906110229190612ecc565b145b6110675760405162461bcd60e51b815260206004820152601460248201527343503a206e6f206d617820616c6c6f77616e636560601b604482015260640161060a565b6110728383836122a0565b6000826001600160a01b0316846001600160a01b03167ff341246adaac6f497bc2a656f546ab9e182111d630394f0c57c710a59a2cb567846040516110b991815260200190565b60405180910390a4505050565b6033546001600160a01b031633146110f05760405162461bcd60e51b815260040161060a90612e60565b6110fa600061259e565b565b6033546001600160a01b031633146111265760405162461bcd60e51b815260040161060a90612e60565b80801561113557611135611959565b6001600160a01b038316600090815260cf602052604090205460ff16156111975760405162461bcd60e51b815260206004820152601660248201527510d40e881c1bdbdb08185b1c9958591e48185919195960521b604482015260640161060a565b600060d15443116111aa5760d1546111ac565b435b6001600160a01b038516600090815260cf60205260408120805460ff1916600117905560d0805492935087929091906111e6908490612e95565b90915550506040805160a0810182526001600160a01b038681168252602082018881529282018481526000606084018181526080850182815260cd8054600181018255935294517f83978b4c69c48dd978ab43fe30f077615294f938fb7f936d9eb340e51ea7db2e600590930292830180546001600160a01b031916919095161790935593517f83978b4c69c48dd978ab43fe30f077615294f938fb7f936d9eb340e51ea7db2f850155517f83978b4c69c48dd978ab43fe30f077615294f938fb7f936d9eb340e51ea7db30840155517f83978b4c69c48dd978ab43fe30f077615294f938fb7f936d9eb340e51ea7db31830155517f83978b4c69c48dd978ab43fe30f077615294f938fb7f936d9eb340e51ea7db329091015561130861204e565b5050505050565b6033546001600160a01b031633146113395760405162461bcd60e51b815260040161060a90612e60565b80801561134857611348611959565b505060cb55565b6113596000610b77565b600060cd60008154811061136f5761136f612e1d565b600091825260208083206040805160a081018252600590940290910180546001600160a01b031684526001810154848401526002810154918401919091526003810154606084015260040154608083015282805260ce9052915060008051602061304d833981519152816113e03390565b6001600160a01b03166001600160a01b03168152602001908152602001600020604051806040016040529081600082015481526020016001820154815250509050600080826000015111156114515760208201516060840151835161144491611fcf565b61144e9190612e49565b90505b831561150e5783826000018181516114699190612e95565b905250608083018051859190611480908390612e95565b90525061149b335b84516001600160a01b03169030876125f0565b60ca546001600160a01b03166340c10f19336040516001600160e01b031960e084901b1681526001600160a01b03909116600482015260248101879052604401600060405180830381600087803b1580156114f557600080fd5b505af1158015611509573d6000803e3d6000fd5b505050505b6060830151825161151e91611fcf565b6020830152801561159b5782516001600160a01b03166340c10f19336040516001600160e01b031960e084901b1681526001600160a01b03909116600482015260248101849052604401600060405180830381600087803b15801561158257600080fd5b505af1158015611596573d6000803e3d6000fd5b505050505b8260cd6000815481106115b0576115b0612e1d565b6000918252602080832084516005939093020180546001600160a01b0319166001600160a01b03909316929092178255838101516001808401919091556040808601516002850155606086015160038501556080909501516004909301929092553380845260008051602061304d833981519152825284842087518155878301519301929092559251878152919290917f90890809c654f11d6e72a28fa60149770a0d11ec6c92319d6ceb2bb0a4ea1a159101610f7c565b600054610100900460ff166116835760005460ff1615611687565b303b155b6116ea5760405162461bcd60e51b815260206004820152602e60248201527f496e697469616c697a61626c653a20636f6e747261637420697320616c72656160448201526d191e481a5b9a5d1a585b1a5e995960921b606482015260840161060a565b600054610100900460ff1615801561170c576000805461ffff19166101011790555b611714612628565b60c980546001600160a01b03199081166001600160a01b0389811691821790935560ca8054831689851617905560cc8054831688851617905560cb86905560d1859055600081815260cf60209081526040808320805460ff19166001908117909155815160a0810183529485526103e8928501838152918501898152606086018581526080870186815260cd8054948501815590965295517f83978b4c69c48dd978ab43fe30f077615294f938fb7f936d9eb340e51ea7db2e60059093029283018054909816981697909717909555517f83978b4c69c48dd978ab43fe30f077615294f938fb7f936d9eb340e51ea7db2f85015593517f83978b4c69c48dd978ab43fe30f077615294f938fb7f936d9eb340e51ea7db3084015590517f83978b4c69c48dd978ab43fe30f077615294f938fb7f936d9eb340e51ea7db31830155517f83978b4c69c48dd978ab43fe30f077615294f938fb7f936d9eb340e51ea7db329091015560d0558015610a9d576000805461ff0019169055505050505050565b60cd81815481106118a657600080fd5b6000918252602090912060059091020180546001820154600283015460038401546004909401546001600160a01b0390931694509092909185565b60cc546001600160a01b0316336001600160a01b0316146119375760405162461bcd60e51b815260206004820152601060248201526f21a81d1037b7363c903a3432903232bb60811b604482015260640161060a565b60cc80546001600160a01b0319166001600160a01b0392909216919091179055565b60cd5460005b81811015610b735761197081610b77565b8061197a81612ee5565b91505061195f565b60008060cd848154811061199857611998612e1d565b600091825260208083206040805160a081018252600590940290910180546001600160a01b03908116855260018083015486860152600283015486850152600383015460608701908152600490930154608087019081528b885260ce8652848820928b168852918552958390208351808501909452805484529095015492820192909252905192519193509190801580611a3157508251155b15611a43576000945050505050611abb565b8360400151431115611a99576000846040015143611a619190612e49565b90506000611a7e866020015160d05460cb5485610c559190612ead565b9050611a8a818461228b565b611a949085612e95565b935050505b60208301518351611aaa9084611fcf565b611ab49190612e49565b9450505050505b92915050565b81611b0e5760405162461bcd60e51b815260206004820152601c60248201527f43503a2075736520746865207374616b696e672066756e6374696f6e00000000604482015260640161060a565b611b1782610b77565b600060cd8381548110611b2c57611b2c612e1d565b600091825260208083206040805160a081018252600590940290910180546001600160a01b031684526001810154848401526002810154848301526003810154606085015260040154608084015286845260ce909152822090925081611b8f3390565b6001600160a01b03166001600160a01b0316815260200190815260200160002060405180604001604052908160008201548152602001600182015481525050905060008082600001511115611c0057602082015160608401518351611bf391611fcf565b611bfd9190612e49565b90505b8315611c3b578382600001818151611c189190612e95565b905250608083018051859190611c2f908390612e95565b905250611c3b33611488565b60608301518251611c4b91611fcf565b602083015260cd805484919087908110611c6757611c67612e1d565b6000918252602080832084516005939093020180546001600160a01b0319166001600160a01b039093169290921782558381015160018084019190915560408086015160028501556060860151600385015560809095015160049093019290925588835260ce815283832033845281529290912084518155918401519101558015611d5f5760c9546001600160a01b03166340c10f19336040516001600160e01b031960e084901b1681526001600160a01b03909116600482015260248101849052604401600060405180830381600087803b158015611d4657600080fd5b505af1158015611d5a573d6000803e3d6000fd5b505050505b604051848152859033907f90890809c654f11d6e72a28fa60149770a0d11ec6c92319d6ceb2bb0a4ea1a159060200160405180910390a35050505050565b6033546001600160a01b03163314611dc75760405162461bcd60e51b815260040161060a90612e60565b6001600160a01b038116611e2c5760405162461bcd60e51b815260206004820152602660248201527f4f776e61626c653a206e6577206f776e657220697320746865207a65726f206160448201526564647265737360d01b606482015260840161060a565b6106a78161259e565b6033546001600160a01b031633146106a75760405162461bcd60e51b815260040161060a90612e60565b7f4910fdfa16fed3260ed0e7147f7cc6da11a60208b5b9406d12a635614ffd91435460ff1615611e9757611e9283612657565b505050565b826001600160a01b03166352d1902d6040518163ffffffff1660e01b8152600401602060405180830381865afa925050508015611ef1575060408051601f3d908101601f19168201909252611eee91810190612ecc565b60015b611f545760405162461bcd60e51b815260206004820152602e60248201527f45524331393637557067726164653a206e657720696d706c656d656e7461746960448201526d6f6e206973206e6f74205555505360901b606482015260840161060a565b6000805160206130068339815191528114611fc35760405162461bcd60e51b815260206004820152602960248201527f45524331393637557067726164653a20756e737570706f727465642070726f786044820152681a58589b195555525160ba1b606482015260840161060a565b50611e928383836126f3565b6000611fe48383670de0b6b3a7640000612111565b9392505050565b6040516001600160a01b038316602482015260448101829052611e9290849063a9059cbb60e01b906064015b60408051601f198184030181529190526020810180516001600160e01b03166001600160e01b031990931692909217909152612718565b600060d0549050600060cd60008154811061206b5761206b612e1d565b906000526020600020906005020160010154826120889190612e49565b90508015610b735761209b600382612f00565b905060cd6000815481106120b1576120b1612e1d565b906000526020600020906005020160010154826120ce9190612e49565b91506120da8183612e95565b91508160d0819055508060cd6000815481106120f8576120f8612e1d565b9060005260206000209060050201600101819055505050565b60008080600019858709858702925082811083820303915050806000141561214b576000841161214057600080fd5b508290049050611fe4565b80841161215757600080fd5b600084868809808403938111909203919050600061217786196001612e95565b86169586900495938490049360008190030460010190506121988184612ead565b9093179260006121a9876003612ead565b60021890506121b88188612ead565b6121c3906002612e49565b6121cd9082612ead565b90506121d98188612ead565b6121e4906002612e49565b6121ee9082612ead565b90506121fa8188612ead565b612205906002612e49565b61220f9082612ead565b905061221b8188612ead565b612226906002612e49565b6122309082612ead565b905061223c8188612ead565b612247906002612e49565b6122519082612ead565b905061225d8188612ead565b612268906002612e49565b6122729082612ead565b905061227e8186612ead565b9998505050505050505050565b6000611fe483670de0b6b3a764000084612111565b6001600160a01b038316600090815260008051602061304d833981519152602052604090205481111561230d5760405162461bcd60e51b815260206004820152601560248201527443503a206e6f7420656e6f75676820746f6b656e7360581b604482015260640161060a565b6123176000610b77565b600060cd60008154811061232d5761232d612e1d565b600091825260208083206040805160a081018252600590940290910180546001600160a01b039081168552600180830154868601526002830154868501526003830154606087019081526004909301546080870152908a16865260008051602061304d83398151915284528286208351808501909452805480855291015493830184905290519395509093926123c39190611fcf565b6123cd9190612e49565b9050831561247d5760ca54604051632770a7eb60e21b81526001600160a01b0387811660048301526024820187905290911690639dc29fac90604401600060405180830381600087803b15801561242357600080fd5b505af1158015612437573d6000803e3d6000fd5b50505050838260000181815161244d9190612e49565b905250608083018051859190612464908390612e49565b905250825161247d906001600160a01b03168686611feb565b6060830151825161248d91611fcf565b602083015260cd80548491906000906124a8576124a8612e1d565b6000918252602080832084516005939093020180546001600160a01b0319166001600160a01b0393841617815584820151600180830191909155604080870151600284015560608701516003840155608090960151600490920191909155918a16835260008051602061304d83398151915281529290912084518155918401519101558015610a9d5782516040516340c10f1960e01b81526001600160a01b03878116600483015260248201849052909116906340c10f1990604401600060405180830381600087803b15801561257e57600080fd5b505af1158015612592573d6000803e3d6000fd5b50505050505050505050565b603380546001600160a01b038381166001600160a01b0319831681179093556040519116919082907f8be0079c531659141344cd1fd0a4f28419497f9722a3daafe3b4186f6b6457e090600090a35050565b6040516001600160a01b0380851660248301528316604482015260648101829052610aa09085906323b872dd60e01b90608401612017565b600054610100900460ff1661264f5760405162461bcd60e51b815260040161060a90612f22565b6110fa6127ea565b6001600160a01b0381163b6126c45760405162461bcd60e51b815260206004820152602d60248201527f455243313936373a206e657720696d706c656d656e746174696f6e206973206e60448201526c1bdd08184818dbdb9d1c9858dd609a1b606482015260840161060a565b60008051602061300683398151915280546001600160a01b0319166001600160a01b0392909216919091179055565b6126fc8361281a565b6000825111806127095750805b15611e9257610aa0838361285a565b600061276d826040518060400160405280602081526020017f5361666545524332303a206c6f772d6c6576656c2063616c6c206661696c6564815250856001600160a01b031661294e9092919063ffffffff16565b805190915015611e92578080602001905181019061278b9190612f6d565b611e925760405162461bcd60e51b815260206004820152602a60248201527f5361666545524332303a204552433230206f7065726174696f6e20646964206e6044820152691bdd081cdd58d8d9595960b21b606482015260840161060a565b600054610100900460ff166128115760405162461bcd60e51b815260040161060a90612f22565b6110fa3361259e565b61282381612657565b6040516001600160a01b038216907fbc7cd75a20ee27fd9adebab32041f755214dbc6bffa90cc0225b39da2e5c2d3b90600090a250565b60606001600160a01b0383163b6128c25760405162461bcd60e51b815260206004820152602660248201527f416464726573733a2064656c65676174652063616c6c20746f206e6f6e2d636f6044820152651b9d1c9858dd60d21b606482015260840161060a565b600080846001600160a01b0316846040516128dd9190612fb6565b600060405180830381855af49150503d8060008114612918576040519150601f19603f3d011682016040523d82523d6000602084013e61291d565b606091505b5091509150612945828260405180606001604052806027815260200161302660279139612965565b95945050505050565b606061295d848460008561299e565b949350505050565b60608315612974575081611fe4565b8251156129845782518084602001fd5b8160405162461bcd60e51b815260040161060a9190612fd2565b6060824710156129ff5760405162461bcd60e51b815260206004820152602660248201527f416464726573733a20696e73756666696369656e742062616c616e636520666f6044820152651c8818d85b1b60d21b606482015260840161060a565b6001600160a01b0385163b612a565760405162461bcd60e51b815260206004820152601d60248201527f416464726573733a2063616c6c20746f206e6f6e2d636f6e7472616374000000604482015260640161060a565b600080866001600160a01b03168587604051612a729190612fb6565b60006040518083038185875af1925050503d8060008114612aaf576040519150601f19603f3d011682016040523d82523d6000602084013e612ab4565b606091505b5091509150612ac4828286612965565b979650505050505050565b6001600160a01b03811681146106a757600080fd5b600060208284031215612af657600080fd5b8135611fe481612acf565b60008060408385031215612b1457600080fd5b50508035926020909101359150565b80151581146106a757600080fd5b600080600060608486031215612b4657600080fd5b83359250602084013591506040840135612b5f81612b23565b809150509250925092565b634e487b7160e01b600052604160045260246000fd5b60008060408385031215612b9357600080fd5b8235612b9e81612acf565b9150602083013567ffffffffffffffff80821115612bbb57600080fd5b818501915085601f830112612bcf57600080fd5b813581811115612be157612be1612b6a565b604051601f8201601f19908116603f01168101908382118183101715612c0957612c09612b6a565b81604052828152886020848701011115612c2257600080fd5b8260208601602083013760006020848301015280955050505050509250929050565b600060208284031215612c5657600080fd5b5035919050565b600080600060608486031215612c7257600080fd5b8335612c7d81612acf565b92506020840135612c8d81612acf565b929592945050506040919091013590565b600080600060608486031215612cb357600080fd5b833592506020840135612cc581612acf565b91506040840135612b5f81612b23565b60008060408385031215612ce857600080fd5b823591506020830135612cfa81612b23565b809150509250929050565b60008060408385031215612d1857600080fd5b823591506020830135612cfa81612acf565b600080600080600060a08688031215612d4257600080fd5b8535612d4d81612acf565b94506020860135612d5d81612acf565b93506040860135612d6d81612acf565b94979396509394606081013594506080013592915050565b6020808252602c908201527f46756e6374696f6e206d7573742062652063616c6c6564207468726f7567682060408201526b19195b1959d85d1958d85b1b60a21b606082015260800190565b6020808252602c908201527f46756e6374696f6e206d7573742062652063616c6c6564207468726f7567682060408201526b6163746976652070726f787960a01b606082015260800190565b634e487b7160e01b600052603260045260246000fd5b634e487b7160e01b600052601160045260246000fd5b600082821015612e5b57612e5b612e33565b500390565b6020808252818101527f4f776e61626c653a2063616c6c6572206973206e6f7420746865206f776e6572604082015260600190565b60008219821115612ea857612ea8612e33565b500190565b6000816000190483118215151615612ec757612ec7612e33565b500290565b600060208284031215612ede57600080fd5b5051919050565b6000600019821415612ef957612ef9612e33565b5060010190565b600082612f1d57634e487b7160e01b600052601260045260246000fd5b500490565b6020808252602b908201527f496e697469616c697a61626c653a20636f6e7472616374206973206e6f74206960408201526a6e697469616c697a696e6760a81b606082015260800190565b600060208284031215612f7f57600080fd5b8151611fe481612b23565b60005b83811015612fa5578181015183820152602001612f8d565b83811115610aa05750506000910152565b60008251612fc8818460208701612f8a565b9190910192915050565b6020815260008251806020840152612ff1816040850160208701612f8a565b601f01601f1916919091016040019291505056fe360894a13ba1a3210667c828492db98dca3e2076cc3735a920a3ca505d382bbc416464726573733a206c6f772d6c6576656c2064656c65676174652063616c6c206661696c6564d3f5862f6f80175da7514904f3a889cc3cc8c4f3af5129e28cdeaee2baa6efc4a2646970667358221220ebca38ff0a2b3dd9158ce9f40ce0f4e0603c2679eecfe089e79051e9a2def59264736f6c634300080a0033",
  "linkReferences": {},
  "deployedLinkReferences": {}
}